{
  "contractName": "DegreeVerification",
  "abi": [
    {
      "constant": true,
      "inputs": [],
      "name": "NextDegreeId",
      "outputs": [
        {
          "name": "",
          "type": "uint256"
        }
      ],
      "payable": false,
      "stateMutability": "view",
      "type": "function",
      "signature": "0x0de425d0"
    },
    {
      "constant": true,
      "inputs": [
        {
          "name": "",
          "type": "uint256"
        }
      ],
      "name": "DegreeDataList",
      "outputs": [
        {
          "name": "UniqueId",
          "type": "uint256"
        },
        {
          "name": "DegreeName",
          "type": "string"
        },
        {
          "name": "UniversityName",
          "type": "string"
        },
        {
          "name": "DegreeJSON",
          "type": "string"
        },
        {
          "name": "DegreeHash",
          "type": "bytes32"
        }
      ],
      "payable": false,
      "stateMutability": "view",
      "type": "function",
      "signature": "0x4c4a71aa"
    },
    {
      "constant": true,
      "inputs": [
        {
          "name": "",
          "type": "uint256"
        }
      ],
      "name": "StakeholderList",
      "outputs": [
        {
          "name": "UniqueId",
          "type": "uint256"
        },
        {
          "name": "Username",
          "type": "string"
        },
        {
          "name": "FullName",
          "type": "string"
        },
        {
          "name": "StakeholderType",
          "type": "string"
        },
        {
          "name": "StakeholderHash",
          "type": "bytes32"
        }
      ],
      "payable": false,
      "stateMutability": "view",
      "type": "function",
      "signature": "0xb4350a62"
    },
    {
      "constant": true,
      "inputs": [],
      "name": "NextStakeholderId",
      "outputs": [
        {
          "name": "",
          "type": "uint256"
        }
      ],
      "payable": false,
      "stateMutability": "view",
      "type": "function",
      "signature": "0xd761b4a9"
    },
    {
      "constant": false,
      "inputs": [
        {
          "name": "_degreeName",
          "type": "string"
        },
        {
          "name": "_universityName",
          "type": "string"
        },
        {
          "name": "_degreeJSON",
          "type": "string"
        }
      ],
      "name": "CreateDegree",
      "outputs": [
        {
          "name": "",
          "type": "uint256"
        }
      ],
      "payable": false,
      "stateMutability": "nonpayable",
      "type": "function",
      "signature": "0x21575ce0"
    },
    {
      "constant": true,
      "inputs": [
        {
          "name": "uniqueId",
          "type": "uint256"
        }
      ],
      "name": "VerifyDegree",
      "outputs": [
        {
          "name": "",
          "type": "string"
        },
        {
          "name": "",
          "type": "string"
        }
      ],
      "payable": false,
      "stateMutability": "view",
      "type": "function",
      "signature": "0xa6a75c24"
    },
    {
      "constant": true,
      "inputs": [
        {
          "name": "_degreeName",
          "type": "string"
        },
        {
          "name": "_universityName",
          "type": "string"
        },
        {
          "name": "_degreeJSON",
          "type": "string"
        }
      ],
      "name": "GetEthDegreeHash",
      "outputs": [
        {
          "name": "",
          "type": "bytes32"
        }
      ],
      "payable": false,
      "stateMutability": "pure",
      "type": "function",
      "signature": "0x882c6d06"
    },
    {
      "constant": true,
      "inputs": [
        {
          "name": "_degreeName",
          "type": "string"
        },
        {
          "name": "_universityName",
          "type": "string"
        },
        {
          "name": "_degreeJSON",
          "type": "string"
        }
      ],
      "name": "GetMessageHash",
      "outputs": [
        {
          "name": "",
          "type": "bytes32"
        }
      ],
      "payable": false,
      "stateMutability": "pure",
      "type": "function",
      "signature": "0x6bb98e66"
    },
    {
      "constant": true,
      "inputs": [
        {
          "name": "_messageHash",
          "type": "bytes32"
        }
      ],
      "name": "GetEthMessageSignedHash",
      "outputs": [
        {
          "name": "",
          "type": "bytes32"
        }
      ],
      "payable": false,
      "stateMutability": "pure",
      "type": "function",
      "signature": "0xebd58427"
    },
    {
      "constant": false,
      "inputs": [
        {
          "name": "_degreeName",
          "type": "string"
        },
        {
          "name": "_universityName",
          "type": "string"
        },
        {
          "name": "_degreeJSON",
          "type": "string"
        }
      ],
      "name": "SignupStakeholder",
      "outputs": [
        {
          "name": "",
          "type": "uint256"
        }
      ],
      "payable": false,
      "stateMutability": "nonpayable",
      "type": "function",
      "signature": "0x893a9e06"
    },
    {
      "constant": true,
      "inputs": [
        {
          "name": "uniqueId",
          "type": "uint256"
        }
      ],
      "name": "SignInStakeholder",
      "outputs": [
        {
          "name": "",
          "type": "string"
        },
        {
          "name": "",
          "type": "bytes32"
        }
      ],
      "payable": false,
      "stateMutability": "view",
      "type": "function",
      "signature": "0xd169e68f"
    }
  ],
  "bytecode": "0x608060405234801561001057600080fd5b5061137a806100206000396000f3fe6080604052600436106100ae5763ffffffff7c01000000000000000000000000000000000000000000000000000000006000350416630de425d081146100b357806321575ce0146100da5780634c4a71aa1461029b5780636bb98e6614610417578063882c6d06146105d8578063893a9e0614610799578063a6a75c241461095a578063b4350a6214610a62578063d169e68f14610a8c578063d761b4a914610b35578063ebd5842714610b4a575b600080fd5b3480156100bf57600080fd5b506100c8610b74565b60408051918252519081900360200190f35b3480156100e657600080fd5b506100c8600480360360608110156100fd57600080fd5b81019060208101813564010000000081111561011857600080fd5b82018360208201111561012a57600080fd5b8035906020019184600183028401116401000000008311171561014c57600080fd5b91908080601f016020809104026020016040519081016040528093929190818152602001838380828437600092019190915250929594936020810193503591505064010000000081111561019f57600080fd5b8201836020820111156101b157600080fd5b803590602001918460018302840111640100000000831117156101d357600080fd5b91908080601f016020809104026020016040519081016040528093929190818152602001838380828437600092019190915250929594936020810193503591505064010000000081111561022657600080fd5b82018360208201111561023857600080fd5b8035906020019184600183028401116401000000008311171561025a57600080fd5b91908080601f016020809104026020016040519081016040528093929190818152602001838380828437600092019190915250929550610b7a945050505050565b3480156102a757600080fd5b506102c5600480360360208110156102be57600080fd5b5035610c39565b60405180868152602001806020018060200180602001858152602001848103845288818151815260200191508051906020019080838360005b838110156103165781810151838201526020016102fe565b50505050905090810190601f1680156103435780820380516001836020036101000a031916815260200191505b50848103835287518152875160209182019189019080838360005b8381101561037657818101518382015260200161035e565b50505050905090810190601f1680156103a35780820380516001836020036101000a031916815260200191505b50848103825286518152865160209182019188019080838360005b838110156103d65781810151838201526020016103be565b50505050905090810190601f1680156104035780820380516001836020036101000a031916815260200191505b509850505050505050505060405180910390f35b34801561042357600080fd5b506100c86004803603606081101561043a57600080fd5b81019060208101813564010000000081111561045557600080fd5b82018360208201111561046757600080fd5b8035906020019184600183028401116401000000008311171561048957600080fd5b91908080601f01602080910402602001604051908101604052809392919081815260200183838082843760009201919091525092959493602081019350359150506401000000008111156104dc57600080fd5b8201836020820111156104ee57600080fd5b8035906020019184600183028401116401000000008311171561051057600080fd5b91908080601f016020809104026020016040519081016040528093929190818152602001838380828437600092019190915250929594936020810193503591505064010000000081111561056357600080fd5b82018360208201111561057557600080fd5b8035906020019184600183028401116401000000008311171561059757600080fd5b91908080601f016020809104026020016040519081016040528093929190818152602001838380828437600092019190915250929550610e07945050505050565b3480156105e457600080fd5b506100c8600480360360608110156105fb57600080fd5b81019060208101813564010000000081111561061657600080fd5b82018360208201111561062857600080fd5b8035906020019184600183028401116401000000008311171561064a57600080fd5b91908080601f016020809104026020016040519081016040528093929190818152602001838380828437600092019190915250929594936020810193503591505064010000000081111561069d57600080fd5b8201836020820111156106af57600080fd5b803590602001918460018302840111640100000000831117156106d157600080fd5b91908080601f016020809104026020016040519081016040528093929190818152602001838380828437600092019190915250929594936020810193503591505064010000000081111561072457600080fd5b82018360208201111561073657600080fd5b8035906020019184600183028401116401000000008311171561075857600080fd5b91908080601f016020809104026020016040519081016040528093929190818152602001838380828437600092019190915250929550610f14945050505050565b3480156107a557600080fd5b506100c8600480360360608110156107bc57600080fd5b8101906020810181356401000000008111156107d757600080fd5b8201836020820111156107e957600080fd5b8035906020019184600183028401116401000000008311171561080b57600080fd5b91908080601f016020809104026020016040519081016040528093929190818152602001838380828437600092019190915250929594936020810193503591505064010000000081111561085e57600080fd5b82018360208201111561087057600080fd5b8035906020019184600183028401116401000000008311171561089257600080fd5b91908080601f01602080910402602001604051908101604052809392919081815260200183838082843760009201919091525092959493602081019350359150506401000000008111156108e557600080fd5b8201836020820111156108f757600080fd5b8035906020019184600183028401116401000000008311171561091957600080fd5b91908080601f016020809104026020016040519081016040528093929190818152602001838380828437600092019190915250929550610f39945050505050565b34801561096657600080fd5b506109846004803603602081101561097d57600080fd5b5035610ff7565b604051808060200180602001838103835285818151815260200191508051906020019080838360005b838110156109c55781810151838201526020016109ad565b50505050905090810190601f1680156109f25780820380516001836020036101000a031916815260200191505b50838103825284518152845160209182019186019080838360005b83811015610a25578181015183820152602001610a0d565b50505050905090810190601f168015610a525780820380516001836020036101000a031916815260200191505b5094505050505060405180910390f35b348015610a6e57600080fd5b506102c560048036036020811015610a8557600080fd5b5035611137565b348015610a9857600080fd5b50610ab660048036036020811015610aaf57600080fd5b50356111a9565b6040518080602001838152602001828103825284818151815260200191508051906020019080838360005b83811015610af9578181015183820152602001610ae1565b50505050905090810190601f168015610b265780820380516001836020036101000a031916815260200191505b50935050505060405180910390f35b348015610b4157600080fd5b506100c861125c565b348015610b5657600080fd5b506100c860048036036020811015610b6d57600080fd5b5035611262565b60005481565b600080610b88858585610f14565b6040805160a0810182526000805480835260208084018b81528486018b9052606085018a905260808501879052918352600180825294909220835181559051805195965092949093610bdf939085019201906112b3565b5060408201518051610bfb9160028401916020909101906112b3565b5060608201518051610c179160038401916020909101906112b3565b5060809190910151600490910155505060008054600181019091559392505050565b600160208181526000928352604092839020805481840180548651600296821615610100026000190190911695909504601f81018590048502860185019096528585529094919392909190830182828015610cd55780601f10610caa57610100808354040283529160200191610cd5565b820191906000526020600020905b815481529060010190602001808311610cb857829003601f168201915b50505060028085018054604080516020601f6000196101006001871615020190941695909504928301859004850281018501909152818152959695945090925090830182828015610d675780601f10610d3c57610100808354040283529160200191610d67565b820191906000526020600020905b815481529060010190602001808311610d4a57829003601f168201915b5050505060038301805460408051602060026001851615610100026000190190941693909304601f8101849004840282018401909252818152949594935090830182828015610df75780601f10610dcc57610100808354040283529160200191610df7565b820191906000526020600020905b815481529060010190602001808311610dda57829003601f168201915b5050505050908060040154905085565b60008383836040516020018084805190602001908083835b60208310610e3e5780518252601f199092019160209182019101610e1f565b51815160209384036101000a600019018019909216911617905286519190930192860191508083835b60208310610e865780518252601f199092019160209182019101610e67565b51815160209384036101000a600019018019909216911617905285519190930192850191508083835b60208310610ece5780518252601f199092019160209182019101610eaf565b6001836020036101000a03801982511681845116808217855250505050505090500193505050506040516020818303038152906040528051906020012090509392505050565b600080610f22858585610e07565b90506000610f2f82611262565b9695505050505050565b600080610f47858585610f14565b6040805160a08101825260025480825260208083018a81528385018a905260608401899052608084018690526000928352600382529390912082518155925180519495509193610f9d92600185019201906112b3565b5060408201518051610fb99160028401916020909101906112b3565b5060608201518051610fd59160038401916020909101906112b3565b5060809190910151600490910155505060028054600181019091559392505050565b600081815260016020818152604092839020808301805485516002958216156101000260001901909116859004601f810185900485028201850190965285815260609586959294929093019290918491908301828280156110995780601f1061106e57610100808354040283529160200191611099565b820191906000526020600020905b81548152906001019060200180831161107c57829003601f168201915b5050845460408051602060026001851615610100026000190190941693909304601f8101849004840282018401909252818152959750869450925084019050828280156111275780601f106110fc57610100808354040283529160200191611127565b820191906000526020600020905b81548152906001019060200180831161110a57829003601f168201915b5050505050905091509150915091565b6003602090815260009182526040918290208054600180830180548651600293821615610100026000190190911692909204601f810186900486028301860190965285825291949293909290830182828015610cd55780601f10610caa57610100808354040283529160200191610cd5565b60008181526003602090815260408083206004810154600191820180548451600294821615610100026000190190911693909304601f8101869004860284018601909452838352606095949093919291849183018282801561124c5780601f106112215761010080835404028352916020019161124c565b820191906000526020600020905b81548152906001019060200180831161122f57829003601f168201915b5050505050915091509150915091565b60025481565b604080517f19457468657265756d205369676e6564204d6573736167653a0a333200000000602080830191909152603c8083019490945282518083039094018452605c909101909152815191012090565b828054600181600116156101000203166002900490600052602060002090601f016020900481019282601f106112f457805160ff1916838001178555611321565b82800160010185558215611321579182015b82811115611321578251825591602001919060010190611306565b5061132d929150611331565b5090565b61134b91905b8082111561132d5760008155600101611337565b9056fea165627a7a723058208578e1e2c2fa695faa619712554ab27a02140cb76061053f66b607c0a38b79900029",
  "source": "pragma solidity ^0.5.0;\r\n\r\ncontract DegreeVerification\r\n{\r\n    uint public NextDegreeId;\r\n    \r\n    struct DegreeData\r\n    {\r\n        uint UniqueId;\r\n        string DegreeName;\r\n        string UniversityName;\r\n        string DegreeJSON;\r\n        bytes32 DegreeHash;\r\n    }\r\n    \r\n    mapping(uint => DegreeData) public DegreeDataList;\r\n    \r\n    function CreateDegree(string memory _degreeName, string memory _universityName, string memory _degreeJSON) public returns (uint)\r\n    {\r\n        bytes32 _degreeHash = GetEthDegreeHash(_degreeName, _universityName, _degreeJSON);\r\n        DegreeDataList[NextDegreeId] = DegreeData(NextDegreeId, _degreeName, _universityName, _degreeJSON, _degreeHash);\r\n        NextDegreeId++;\r\n        return NextDegreeId - 1;\r\n    }\r\n    \r\n    function VerifyDegree(uint uniqueId) view public returns(string memory, string memory)\r\n    {\r\n        return(DegreeDataList[uniqueId].DegreeName, DegreeDataList[uniqueId].UniversityName); \r\n    }\r\n\r\n    /*    \r\n    // Create and Verifying Hash\r\n    */    \r\n    \r\n    function GetEthDegreeHash(string memory _degreeName, string memory _universityName, string memory _degreeJSON) public pure returns (bytes32)\r\n    {\r\n        bytes32 messageHash = GetMessageHash(_degreeName, _universityName, _degreeJSON);\r\n        bytes32 ethSignMessageHash = GetEthMessageSignedHash(messageHash);\r\n        \r\n        return ethSignMessageHash;\r\n    }\r\n    \r\n    function GetMessageHash(string memory _degreeName, string memory _universityName, string memory _degreeJSON) public pure returns (bytes32)\r\n    {\r\n        // have to add uniqueId in parameter to distinguish hash\r\n        return keccak256(abi.encodePacked(_degreeName, _universityName, _degreeJSON));\r\n    }\r\n    \r\n    function GetEthMessageSignedHash(bytes32 _messageHash) public pure returns (bytes32)\r\n    {\r\n        // prefix Ethereum signing message (32 bit) \r\n        // followed by length of message it required for ecrecover function\r\n        return keccak256(abi.encodePacked(\"\\x19Ethereum Signed Message:\\n32\", _messageHash));\r\n    }\r\n\r\n    /*\r\n    // Registration\r\n    */\r\n\r\n    uint public NextStakeholderId;\r\n    \r\n    struct Stakeholder\r\n    {\r\n        uint UniqueId;\r\n        string Username;\r\n        string FullName;\r\n        string StakeholderType;\r\n        bytes32 StakeholderHash;\r\n        //string accessType;\r\n    }\r\n    \r\n    mapping(uint => Stakeholder) public StakeholderList;\r\n    \r\n    function SignupStakeholder(string memory _degreeName, string memory _universityName, string memory _degreeJSON) public returns (uint)\r\n    {\r\n        bytes32 _degreeHash = GetEthDegreeHash(_degreeName, _universityName, _degreeJSON);\r\n        StakeholderList[NextStakeholderId] = Stakeholder(NextStakeholderId, _degreeName, _universityName, _degreeJSON, _degreeHash);\r\n        NextStakeholderId++;\r\n        return NextStakeholderId - 1;\r\n    }\r\n    \r\n    function SignInStakeholder(uint uniqueId) view public returns(string memory, bytes32)\r\n    {\r\n        return(StakeholderList[uniqueId].Username, StakeholderList[uniqueId].StakeholderHash); \r\n    }\r\n}",
  "sourcePath": "D:/Personal/Masters Related/Block chain/Project/eth-DegreeVerification/contracts/DegreeVerification.sol",
  "compiler": {
    "name": "solc",
    "version": "0.5.0+commit.1d4f565a.Emscripten.clang"
  },
  "schemaVersion": "3.0.1",
  "updatedAt": "2021-01-22T19:31:49.271Z",
  "devdoc": {
    "methods": {}
  },
  "userdoc": {
    "methods": {}
  }
}