{
  "contractName": "DegreeVerification",
  "abi": [
    {
      "constant": true,
      "inputs": [],
      "name": "NextDegreeId",
      "outputs": [
        {
          "name": "",
          "type": "uint256"
        }
      ],
      "payable": false,
      "stateMutability": "view",
      "type": "function",
      "signature": "0x0de425d0"
    },
    {
      "constant": true,
      "inputs": [
        {
          "name": "",
          "type": "uint256"
        }
      ],
      "name": "DegreeDataList",
      "outputs": [
        {
          "name": "SerialNumber",
          "type": "uint256"
        },
        {
          "name": "NationalIdentityCard",
          "type": "string"
        },
        {
          "name": "StudentName",
          "type": "string"
        },
        {
          "name": "StudentId",
          "type": "string"
        },
        {
          "name": "DegreeTitle",
          "type": "string"
        },
        {
          "name": "UniversityName",
          "type": "string"
        },
        {
          "name": "DegreeJSON",
          "type": "string"
        },
        {
          "name": "DegreeHash",
          "type": "bytes32"
        },
        {
          "name": "InsertedBy",
          "type": "address"
        }
      ],
      "payable": false,
      "stateMutability": "view",
      "type": "function",
      "signature": "0x4c4a71aa"
    },
    {
      "constant": true,
      "inputs": [],
      "name": "SignUpStateMessage",
      "outputs": [
        {
          "name": "",
          "type": "string"
        }
      ],
      "payable": false,
      "stateMutability": "view",
      "type": "function",
      "signature": "0x6b622683"
    },
    {
      "constant": true,
      "inputs": [
        {
          "name": "",
          "type": "uint256"
        }
      ],
      "name": "StakeholderList",
      "outputs": [
        {
          "name": "UniqueId",
          "type": "uint256"
        },
        {
          "name": "Username",
          "type": "string"
        },
        {
          "name": "UserPass",
          "type": "string"
        },
        {
          "name": "FullName",
          "type": "string"
        },
        {
          "name": "UserAddress",
          "type": "address"
        },
        {
          "name": "StakeholderHash",
          "type": "bytes32"
        },
        {
          "name": "AccountType",
          "type": "string"
        }
      ],
      "payable": false,
      "stateMutability": "view",
      "type": "function",
      "signature": "0xb4350a62"
    },
    {
      "constant": true,
      "inputs": [],
      "name": "NextStakeholderId",
      "outputs": [
        {
          "name": "",
          "type": "uint256"
        }
      ],
      "payable": false,
      "stateMutability": "view",
      "type": "function",
      "signature": "0xd761b4a9"
    },
    {
      "constant": false,
      "inputs": [
        {
          "name": "_nationIdCard",
          "type": "string"
        },
        {
          "name": "_studentName",
          "type": "string"
        },
        {
          "name": "_studentId",
          "type": "string"
        },
        {
          "name": "_degreeTitle",
          "type": "string"
        },
        {
          "name": "_universityName",
          "type": "string"
        },
        {
          "name": "_degreeJSON",
          "type": "string"
        }
      ],
      "name": "CreateDegree",
      "outputs": [
        {
          "name": "",
          "type": "uint256"
        }
      ],
      "payable": false,
      "stateMutability": "nonpayable",
      "type": "function",
      "signature": "0x2500c04c"
    },
    {
      "constant": true,
      "inputs": [
        {
          "name": "_degreeId",
          "type": "uint256"
        }
      ],
      "name": "GetDegreeInfo",
      "outputs": [
        {
          "name": "",
          "type": "uint256"
        },
        {
          "name": "",
          "type": "string"
        },
        {
          "name": "",
          "type": "string"
        },
        {
          "name": "",
          "type": "string"
        },
        {
          "name": "",
          "type": "string"
        },
        {
          "name": "",
          "type": "string"
        },
        {
          "name": "",
          "type": "bytes32"
        }
      ],
      "payable": false,
      "stateMutability": "view",
      "type": "function",
      "signature": "0x79986a9b"
    },
    {
      "constant": true,
      "inputs": [
        {
          "name": "_nationIdCard",
          "type": "string"
        },
        {
          "name": "_degreeTitle",
          "type": "string"
        },
        {
          "name": "_university",
          "type": "string"
        }
      ],
      "name": "GetDegreeInfo",
      "outputs": [
        {
          "name": "",
          "type": "bytes32"
        },
        {
          "name": "",
          "type": "uint256"
        }
      ],
      "payable": false,
      "stateMutability": "view",
      "type": "function",
      "signature": "0xfe9a51ee"
    },
    {
      "constant": true,
      "inputs": [
        {
          "name": "_degreeId",
          "type": "uint256"
        },
        {
          "name": "_degreeRequestedHash",
          "type": "bytes32"
        }
      ],
      "name": "VerifyDegree",
      "outputs": [
        {
          "name": "",
          "type": "string"
        },
        {
          "name": "",
          "type": "string"
        },
        {
          "name": "",
          "type": "string"
        },
        {
          "name": "",
          "type": "string"
        }
      ],
      "payable": false,
      "stateMutability": "view",
      "type": "function",
      "signature": "0xc30392ff"
    },
    {
      "constant": false,
      "inputs": [
        {
          "name": "_usermame",
          "type": "string"
        },
        {
          "name": "_password",
          "type": "string"
        },
        {
          "name": "_fullName",
          "type": "string"
        },
        {
          "name": "_accountType",
          "type": "string"
        }
      ],
      "name": "SignupStakeholder",
      "outputs": [
        {
          "name": "",
          "type": "uint256"
        }
      ],
      "payable": false,
      "stateMutability": "nonpayable",
      "type": "function",
      "signature": "0x4ea6e4c2"
    },
    {
      "constant": true,
      "inputs": [
        {
          "name": "_usermame",
          "type": "string"
        },
        {
          "name": "_password",
          "type": "string"
        }
      ],
      "name": "SignInStakeholder",
      "outputs": [
        {
          "name": "",
          "type": "string"
        }
      ],
      "payable": false,
      "stateMutability": "view",
      "type": "function",
      "signature": "0x63aeb9a5"
    },
    {
      "constant": true,
      "inputs": [
        {
          "name": "_degreeName",
          "type": "string"
        },
        {
          "name": "_universityName",
          "type": "string"
        },
        {
          "name": "_degreeJSON",
          "type": "string"
        }
      ],
      "name": "GetEthDegreeHash",
      "outputs": [
        {
          "name": "",
          "type": "bytes32"
        }
      ],
      "payable": false,
      "stateMutability": "pure",
      "type": "function",
      "signature": "0x882c6d06"
    },
    {
      "constant": true,
      "inputs": [
        {
          "name": "_degreeName",
          "type": "string"
        },
        {
          "name": "_universityName",
          "type": "string"
        },
        {
          "name": "_degreeJSON",
          "type": "string"
        }
      ],
      "name": "GetMessageHash",
      "outputs": [
        {
          "name": "",
          "type": "bytes32"
        }
      ],
      "payable": false,
      "stateMutability": "pure",
      "type": "function",
      "signature": "0x6bb98e66"
    },
    {
      "constant": true,
      "inputs": [
        {
          "name": "_messageHash",
          "type": "bytes32"
        }
      ],
      "name": "GetEthMessageSignedHash",
      "outputs": [
        {
          "name": "",
          "type": "bytes32"
        }
      ],
      "payable": false,
      "stateMutability": "pure",
      "type": "function",
      "signature": "0xebd58427"
    }
  ],
  "bytecode": "0x608060405234801561001057600080fd5b50613094806100206000396000f3fe6080604052600436106100cf5763ffffffff7c01000000000000000000000000000000000000000000000000000000006000350416630de425d081146100d45780632500c04c146100fb5780634c4a71aa146104515780634ea6e4c21461071b57806363aeb9a5146109635780636b62268314610b125780636bb98e6614610b2757806379986a9b14610ce8578063882c6d0614610f30578063b4350a62146110f1578063c30392ff146112ec578063d761b4a9146114c6578063ebd58427146114db578063fe9a51ee14611505575b600080fd5b3480156100e057600080fd5b506100e96116df565b60408051918252519081900360200190f35b34801561010757600080fd5b506100e9600480360360c081101561011e57600080fd5b81019060208101813564010000000081111561013957600080fd5b82018360208201111561014b57600080fd5b8035906020019184600183028401116401000000008311171561016d57600080fd5b91908080601f01602080910402602001604051908101604052809392919081815260200183838082843760009201919091525092959493602081019350359150506401000000008111156101c057600080fd5b8201836020820111156101d257600080fd5b803590602001918460018302840111640100000000831117156101f457600080fd5b91908080601f016020809104026020016040519081016040528093929190818152602001838380828437600092019190915250929594936020810193503591505064010000000081111561024757600080fd5b82018360208201111561025957600080fd5b8035906020019184600183028401116401000000008311171561027b57600080fd5b91908080601f01602080910402602001604051908101604052809392919081815260200183838082843760009201919091525092959493602081019350359150506401000000008111156102ce57600080fd5b8201836020820111156102e057600080fd5b8035906020019184600183028401116401000000008311171561030257600080fd5b91908080601f016020809104026020016040519081016040528093929190818152602001838380828437600092019190915250929594936020810193503591505064010000000081111561035557600080fd5b82018360208201111561036757600080fd5b8035906020019184600183028401116401000000008311171561038957600080fd5b91908080601f01602080910402602001604051908101604052809392919081815260200183838082843760009201919091525092959493602081019350359150506401000000008111156103dc57600080fd5b8201836020820111156103ee57600080fd5b8035906020019184600183028401116401000000008311171561041057600080fd5b91908080601f0160208091040260200160405190810160405280939291908181526020018383808284376000920191909152509295506116e5945050505050565b34801561045d57600080fd5b5061047b6004803603602081101561047457600080fd5b503561184b565b604051808a815260200180602001806020018060200180602001806020018060200189815260200188600160a060020a0316600160a060020a0316815260200187810387528f818151815260200191508051906020019080838360005b838110156104f05781810151838201526020016104d8565b50505050905090810190601f16801561051d5780820380516001836020036101000a031916815260200191505b5087810386528e818151815260200191508051906020019080838360005b8381101561055357818101518382015260200161053b565b50505050905090810190601f1680156105805780820380516001836020036101000a031916815260200191505b5087810385528d5181528d516020918201918f019080838360005b838110156105b357818101518382015260200161059b565b50505050905090810190601f1680156105e05780820380516001836020036101000a031916815260200191505b5087810384528c5181528c516020918201918e019080838360005b838110156106135781810151838201526020016105fb565b50505050905090810190601f1680156106405780820380516001836020036101000a031916815260200191505b5087810383528b5181528b516020918201918d019080838360005b8381101561067357818101518382015260200161065b565b50505050905090810190601f1680156106a05780820380516001836020036101000a031916815260200191505b5087810382528a5181528a516020918201918c019080838360005b838110156106d35781810151838201526020016106bb565b50505050905090810190601f1680156107005780820380516001836020036101000a031916815260200191505b509f5050505050505050505050505050505060405180910390f35b34801561072757600080fd5b506100e96004803603608081101561073e57600080fd5b81019060208101813564010000000081111561075957600080fd5b82018360208201111561076b57600080fd5b8035906020019184600183028401116401000000008311171561078d57600080fd5b91908080601f01602080910402602001604051908101604052809392919081815260200183838082843760009201919091525092959493602081019350359150506401000000008111156107e057600080fd5b8201836020820111156107f257600080fd5b8035906020019184600183028401116401000000008311171561081457600080fd5b91908080601f016020809104026020016040519081016040528093929190818152602001838380828437600092019190915250929594936020810193503591505064010000000081111561086757600080fd5b82018360208201111561087957600080fd5b8035906020019184600183028401116401000000008311171561089b57600080fd5b91908080601f01602080910402602001604051908101604052809392919081815260200183838082843760009201919091525092959493602081019350359150506401000000008111156108ee57600080fd5b82018360208201111561090057600080fd5b8035906020019184600183028401116401000000008311171561092257600080fd5b91908080601f016020809104026020016040519081016040528093929190818152602001838380828437600092019190915250929550611bd9945050505050565b34801561096f57600080fd5b50610a9d6004803603604081101561098657600080fd5b8101906020810181356401000000008111156109a157600080fd5b8201836020820111156109b357600080fd5b803590602001918460018302840111640100000000831117156109d557600080fd5b91908080601f0160208091040260200160405190810160405280939291908181526020018383808284376000920191909152509295949360208101935035915050640100000000811115610a2857600080fd5b820183602082011115610a3a57600080fd5b80359060200191846001830284011164010000000083111715610a5c57600080fd5b91908080601f016020809104026020016040519081016040528093929190818152602001838380828437600092019190915250929550611e08945050505050565b6040805160208082528351818301528351919283929083019185019080838360005b83811015610ad7578181015183820152602001610abf565b50505050905090810190601f168015610b045780820380516001836020036101000a031916815260200191505b509250505060405180910390f35b348015610b1e57600080fd5b50610a9d612075565b348015610b3357600080fd5b506100e960048036036060811015610b4a57600080fd5b810190602081018135640100000000811115610b6557600080fd5b820183602082011115610b7757600080fd5b80359060200191846001830284011164010000000083111715610b9957600080fd5b91908080601f0160208091040260200160405190810160405280939291908181526020018383808284376000920191909152509295949360208101935035915050640100000000811115610bec57600080fd5b820183602082011115610bfe57600080fd5b80359060200191846001830284011164010000000083111715610c2057600080fd5b91908080601f0160208091040260200160405190810160405280939291908181526020018383808284376000920191909152509295949360208101935035915050640100000000811115610c7357600080fd5b820183602082011115610c8557600080fd5b80359060200191846001830284011164010000000083111715610ca757600080fd5b91908080601f016020809104026020016040519081016040528093929190818152602001838380828437600092019190915250929550612103945050505050565b348015610cf457600080fd5b50610d1260048036036020811015610d0b57600080fd5b5035612210565b60405180888152602001806020018060200180602001806020018060200187815260200186810386528c818151815260200191508051906020019080838360005b83811015610d6b578181015183820152602001610d53565b50505050905090810190601f168015610d985780820380516001836020036101000a031916815260200191505b5086810385528b5181528b516020918201918d019080838360005b83811015610dcb578181015183820152602001610db3565b50505050905090810190601f168015610df85780820380516001836020036101000a031916815260200191505b5086810384528a5181528a516020918201918c019080838360005b83811015610e2b578181015183820152602001610e13565b50505050905090810190601f168015610e585780820380516001836020036101000a031916815260200191505b5086810383528951815289516020918201918b019080838360005b83811015610e8b578181015183820152602001610e73565b50505050905090810190601f168015610eb85780820380516001836020036101000a031916815260200191505b5086810382528851815288516020918201918a019080838360005b83811015610eeb578181015183820152602001610ed3565b50505050905090810190601f168015610f185780820380516001836020036101000a031916815260200191505b509c5050505050505050505050505060405180910390f35b348015610f3c57600080fd5b506100e960048036036060811015610f5357600080fd5b810190602081018135640100000000811115610f6e57600080fd5b820183602082011115610f8057600080fd5b80359060200191846001830284011164010000000083111715610fa257600080fd5b91908080601f0160208091040260200160405190810160405280939291908181526020018383808284376000920191909152509295949360208101935035915050640100000000811115610ff557600080fd5b82018360208201111561100757600080fd5b8035906020019184600183028401116401000000008311171561102957600080fd5b91908080601f016020809104026020016040519081016040528093929190818152602001838380828437600092019190915250929594936020810193503591505064010000000081111561107c57600080fd5b82018360208201111561108e57600080fd5b803590602001918460018302840111640100000000831117156110b057600080fd5b91908080601f016020809104026020016040519081016040528093929190818152602001838380828437600092019190915250929550612525945050505050565b3480156110fd57600080fd5b5061111b6004803603602081101561111457600080fd5b503561254a565b6040518088815260200180602001806020018060200187600160a060020a0316600160a060020a031681526020018681526020018060200185810385528b818151815260200191508051906020019080838360005b83811015611188578181015183820152602001611170565b50505050905090810190601f1680156111b55780820380516001836020036101000a031916815260200191505b5085810384528a5181528a516020918201918c019080838360005b838110156111e85781810151838201526020016111d0565b50505050905090810190601f1680156112155780820380516001836020036101000a031916815260200191505b5085810383528951815289516020918201918b019080838360005b83811015611248578181015183820152602001611230565b50505050905090810190601f1680156112755780820380516001836020036101000a031916815260200191505b50858103825286518152865160209182019188019080838360005b838110156112a8578181015183820152602001611290565b50505050905090810190601f1680156112d55780820380516001836020036101000a031916815260200191505b509b50505050505050505050505060405180910390f35b3480156112f857600080fd5b5061131c6004803603604081101561130f57600080fd5b50803590602001356127b9565b6040518080602001806020018060200180602001858103855289818151815260200191508051906020019080838360005b8381101561136557818101518382015260200161134d565b50505050905090810190601f1680156113925780820380516001836020036101000a031916815260200191505b5085810384528851815288516020918201918a019080838360005b838110156113c55781810151838201526020016113ad565b50505050905090810190601f1680156113f25780820380516001836020036101000a031916815260200191505b50858103835287518152875160209182019189019080838360005b8381101561142557818101518382015260200161140d565b50505050905090810190601f1680156114525780820380516001836020036101000a031916815260200191505b50858103825286518152865160209182019188019080838360005b8381101561148557818101518382015260200161146d565b50505050905090810190601f1680156114b25780820380516001836020036101000a031916815260200191505b509850505050505050505060405180910390f35b3480156114d257600080fd5b506100e9612c27565b3480156114e757600080fd5b506100e9600480360360208110156114fe57600080fd5b5035612c2d565b34801561151157600080fd5b506116c66004803603606081101561152857600080fd5b81019060208101813564010000000081111561154357600080fd5b82018360208201111561155557600080fd5b8035906020019184600183028401116401000000008311171561157757600080fd5b91908080601f01602080910402602001604051908101604052809392919081815260200183838082843760009201919091525092959493602081019350359150506401000000008111156115ca57600080fd5b8201836020820111156115dc57600080fd5b803590602001918460018302840111640100000000831117156115fe57600080fd5b91908080601f016020809104026020016040519081016040528093929190818152602001838380828437600092019190915250929594936020810193503591505064010000000081111561165157600080fd5b82018360208201111561166357600080fd5b8035906020019184600183028401116401000000008311171561168557600080fd5b91908080601f016020809104026020016040519081016040528093929190818152602001838380828437600092019190915250929550612c7e945050505050565b6040805192835260208301919091528051918290030190f35b60005481565b6000806116f3858585612525565b60408051610120810182526000805480835260208084018e81528486018e9052606085018d9052608085018c905260a085018b905260c085018a905260e085018790523361010086015291835260018082529490922083518155905180519596509294909361176793908501920190612fcd565b5060408201518051611783916002840191602090910190612fcd565b506060820151805161179f916003840191602090910190612fcd565b50608082015180516117bb916004840191602090910190612fcd565b5060a082015180516117d7916005840191602090910190612fcd565b5060c082015180516117f3916006840191602090910190612fcd565b5060e08201516007820155610100909101516008909101805473ffffffffffffffffffffffffffffffffffffffff1916600160a060020a03909216919091179055505060008054600181019091559695505050505050565b600160208181526000928352604092839020805481840180548651600296821615610100026000190190911695909504601f810185900485028601850190965285855290949193929091908301828280156118e75780601f106118bc576101008083540402835291602001916118e7565b820191906000526020600020905b8154815290600101906020018083116118ca57829003601f168201915b50505060028085018054604080516020601f60001961010060018716150201909416959095049283018590048502810185019091528181529596959450909250908301828280156119795780601f1061194e57610100808354040283529160200191611979565b820191906000526020600020905b81548152906001019060200180831161195c57829003601f168201915b5050505060038301805460408051602060026001851615610100026000190190941693909304601f8101849004840282018401909252818152949594935090830182828015611a095780601f106119de57610100808354040283529160200191611a09565b820191906000526020600020905b8154815290600101906020018083116119ec57829003601f168201915b5050505060048301805460408051602060026001851615610100026000190190941693909304601f8101849004840282018401909252818152949594935090830182828015611a995780601f10611a6e57610100808354040283529160200191611a99565b820191906000526020600020905b815481529060010190602001808311611a7c57829003601f168201915b5050505060058301805460408051602060026001851615610100026000190190941693909304601f8101849004840282018401909252818152949594935090830182828015611b295780601f10611afe57610100808354040283529160200191611b29565b820191906000526020600020905b815481529060010190602001808311611b0c57829003601f168201915b5050505060068301805460408051602060026001851615610100026000190190941693909304601f8101849004840282018401909252818152949594935090830182828015611bb95780601f10611b8e57610100808354040283529160200191611bb9565b820191906000526020600020905b815481529060010190602001808311611b9c57829003601f168201915b505050506007830154600890930154919291600160a060020a0316905089565b6000337399bc5c25cd1750e386b9440c77b6e76b2b77c91a80821415611d8c576000611c06888889612525565b6040805160e08101825260025480825260208083018d81528385018d9052606084018c9052600160a060020a038916608085015260a0840186905260c084018b90526000928352600482529390912082518155925180519495509193611c729260018501920190612fcd565b5060408201518051611c8e916002840191602090910190612fcd565b5060608201518051611caa916003840191602090910190612fcd565b50608082015160048201805473ffffffffffffffffffffffffffffffffffffffff1916600160a060020a0390921691909117905560a0820151600582015560c08201518051611d03916006840191602090910190612fcd565b5050600280546001019055506040805160608101825260278082527f5375636365737366756c6c79205369676e75702c205065726d697373696f6e20602083019081527f4772616e746564000000000000000000000000000000000000000000000000009290930191909152611d7b91600391612fcd565b506001600254039350505050611e00565b6040805160608101825260288082527f4e6f7420416c6c6f77656420746f205369676e75702c205065726d697373696f602083019081527f6e2044656e6965640000000000000000000000000000000000000000000000009290930191909152611df891600391612fcd565b506000925050505b949350505050565b606060005b60025481101561205d57836040516020018082805190602001908083835b60208310611e4a5780518252601f199092019160209182019101611e2b565b6001836020036101000a03801982511681845116808217855250505050505090500191505060405160208183030381529060405280519060200120600460008381526020019081526020016000206001016040516020018082805460018160011615610100020316600290048015611ef95780601f10611ed7576101008083540402835291820191611ef9565b820191906000526020600020905b815481529060010190602001808311611ee5575b50509150506040516020818303038152906040528051906020012014801561201b5750826040516020018082805190602001908083835b60208310611f4f5780518252601f199092019160209182019101611f30565b6001836020036101000a03801982511681845116808217855250505050505090500191505060405160208183030381529060405280519060200120600460008381526020019081526020016000206002016040516020018082805460018160011615610100020316600290048015611ffe5780601f10611fdc576101008083540402835291820191611ffe565b820191906000526020600020905b815481529060010190602001808311611fea575b505091505060405160208183030381529060405280519060200120145b1561205557600061202d858586612525565b60008381526004602052604090206005015490915081141561205357849250505061206f565b505b600101611e0d565b50506040805160208101909152600081525b92915050565b6003805460408051602060026001851615610100026000190190941693909304601f810184900484028201840190925281815292918301828280156120fb5780601f106120d0576101008083540402835291602001916120fb565b820191906000526020600020905b8154815290600101906020018083116120de57829003601f168201915b505050505081565b60008383836040516020018084805190602001908083835b6020831061213a5780518252601f19909201916020918201910161211b565b51815160209384036101000a600019018019909216911617905286519190930192860191508083835b602083106121825780518252601f199092019160209182019101612163565b51815160209384036101000a600019018019909216911617905285519190930192850191508083835b602083106121ca5780518252601f1990920191602091820191016121ab565b6001836020036101000a03801982511681845116808217855250505050505090500193505050506040516020818303038152906040528051906020012090509392505050565b600081815260016020818152604080842080546007820154828601805485516002988216156101000260001901909116889004601f810188900488028201880190965285815260609788978897889788978d97909695948201946003830194600484019460059094019388918301828280156122cd5780601f106122a2576101008083540402835291602001916122cd565b820191906000526020600020905b8154815290600101906020018083116122b057829003601f168201915b5050885460408051602060026001851615610100026000190190941693909304601f8101849004840282018401909252818152959b508a94509250840190508282801561235b5780601f106123305761010080835404028352916020019161235b565b820191906000526020600020905b81548152906001019060200180831161233e57829003601f168201915b5050875460408051602060026001851615610100026000190190941693909304601f8101849004840282018401909252818152959a50899450925084019050828280156123e95780601f106123be576101008083540402835291602001916123e9565b820191906000526020600020905b8154815290600101906020018083116123cc57829003601f168201915b5050865460408051602060026001851615610100026000190190941693909304601f8101849004840282018401909252818152959950889450925084019050828280156124775780601f1061244c57610100808354040283529160200191612477565b820191906000526020600020905b81548152906001019060200180831161245a57829003601f168201915b5050855460408051602060026001851615610100026000190190941693909304601f8101849004840282018401909252818152959850879450925084019050828280156125055780601f106124da57610100808354040283529160200191612505565b820191906000526020600020905b8154815290600101906020018083116124e857829003601f168201915b505050505091509650965096509650965096509650919395979092949650565b600080612533858585612103565b9050600061254082612c2d565b9695505050505050565b6004602090815260009182526040918290208054600180830180548651600293821615610100026000190190911692909204601f8101869004860283018601909652858252919492939092908301828280156125e75780601f106125bc576101008083540402835291602001916125e7565b820191906000526020600020905b8154815290600101906020018083116125ca57829003601f168201915b50505060028085018054604080516020601f60001961010060018716150201909416959095049283018590048502810185019091528181529596959450909250908301828280156126795780601f1061264e57610100808354040283529160200191612679565b820191906000526020600020905b81548152906001019060200180831161265c57829003601f168201915b5050505060038301805460408051602060026001851615610100026000190190941693909304601f81018490048402820184019092528181529495949350908301828280156127095780601f106126de57610100808354040283529160200191612709565b820191906000526020600020905b8154815290600101906020018083116126ec57829003601f168201915b505050506004830154600584015460068501805460408051602060026101006001861615026000190190941693909304601f81018490048402820184019092528181529697600160a060020a0390951696939550908301828280156127af5780601f10612784576101008083540402835291602001916127af565b820191906000526020600020905b81548152906001019060200180831161279257829003601f168201915b5050505050905087565b60608060608060006129ae600160008981526020019081526020016000206004018054600181600116156101000203166002900480601f01602080910402602001604051908101604052809291908181526020018280546001816001161561010002031660029004801561286e5780601f106128435761010080835404028352916020019161286e565b820191906000526020600020905b81548152906001019060200180831161285157829003601f168201915b50505060008b81526001602081815260409283902060050180548451600294821615610100026000190190911693909304601f81018390048302840183019094528383529194509092508301828280156129095780601f106128de57610100808354040283529160200191612909565b820191906000526020600020905b8154815290600101906020018083116128ec57829003601f168201915b50505060008c81526001602081815260409283902060060180548451600294821615610100026000190190911693909304601f81018390048302840183019094528383529194509092508301828280156129a45780601f10612979576101008083540402835291602001916129a4565b820191906000526020600020905b81548152906001019060200180831161298757829003601f168201915b5050505050612525565b905085811415612c1c57600087815260016020818152604092839020808301805485516002958216156101000260001901909116859004601f81018590048502820185019096528581529094938201936003830193600490930192869190830182828015612a5d5780601f10612a3257610100808354040283529160200191612a5d565b820191906000526020600020905b815481529060010190602001808311612a4057829003601f168201915b5050865460408051602060026001851615610100026000190190941693909304601f810184900484028201840190925281815295995088945092508401905082828015612aeb5780601f10612ac057610100808354040283529160200191612aeb565b820191906000526020600020905b815481529060010190602001808311612ace57829003601f168201915b5050855460408051602060026001851615610100026000190190941693909304601f810184900484028201840190925281815295985087945092508401905082828015612b795780601f10612b4e57610100808354040283529160200191612b79565b820191906000526020600020905b815481529060010190602001808311612b5c57829003601f168201915b5050845460408051602060026001851615610100026000190190941693909304601f810184900484028201840190925281815295975086945092508401905082828015612c075780601f10612bdc57610100808354040283529160200191612c07565b820191906000526020600020905b815481529060010190602001808311612bea57829003601f168201915b50505050509050945094509450945050612c1e565b505b92959194509250565b60025481565b604080517f19457468657265756d205369676e6564204d6573736167653a0a333200000000602080830191909152603c8083019490945282518083039094018452605c909101909152815191012090565b600080805b600254811015612fc357856040516020018082805190602001908083835b60208310612cc05780518252601f199092019160209182019101612ca1565b6001836020036101000a03801982511681845116808217855250505050505090500191505060405160208183030381529060405280519060200120600160008381526020019081526020016000206001016040516020018082805460018160011615610100020316600290048015612d6f5780601f10612d4d576101008083540402835291820191612d6f565b820191906000526020600020905b815481529060010190602001808311612d5b575b505091505060405160208183030381529060405280519060200120148015612e915750846040516020018082805190602001908083835b60208310612dc55780518252601f199092019160209182019101612da6565b6001836020036101000a03801982511681845116808217855250505050505090500191505060405160208183030381529060405280519060200120600160008381526020019081526020016000206004016040516020018082805460018160011615610100020316600290048015612e745780601f10612e52576101008083540402835291820191612e74565b820191906000526020600020905b815481529060010190602001808311612e60575b505091505060405160208183030381529060405280519060200120145b8015612f975750836040516020018082805190602001908083835b60208310612ecb5780518252601f199092019160209182019101612eac565b6001836020036101000a03801982511681845116808217855250505050505090500191505060405160208183030381529060405280519060200120600160008381526020019081526020016000206005016040516020018082805460018160011615610100020316600290048015612f7a5780601f10612f58576101008083540402835291820191612f7a565b820191906000526020600020905b815481529060010190602001808311612f66575b505091505060405160208183030381529060405280519060200120145b15612fbb576000908152600160205260409020600781015490549092509050612fc5565b600101612c83565b505b935093915050565b828054600181600116156101000203166002900490600052602060002090601f016020900481019282601f1061300e57805160ff191683800117855561303b565b8280016001018555821561303b579182015b8281111561303b578251825591602001919060010190613020565b5061304792915061304b565b5090565b61306591905b808211156130475760008155600101613051565b9056fea165627a7a723058202f0276d17219682398d03d96c0e443d7375117bb2a92c814d0b0b7c4291b55860029",
  "source": "pragma solidity ^0.5.0;\r\n\r\ncontract DegreeVerification\r\n{\r\n    uint public NextDegreeId;\r\n    \r\n    struct DegreeData\r\n    {\r\n        uint SerialNumber;\r\n        string NationalIdentityCard;\r\n        string StudentName;\r\n        string StudentId;\r\n        string DegreeTitle;\r\n        string UniversityName;\r\n        string DegreeJSON;\r\n        bytes32 DegreeHash;\r\n        address InsertedBy;\r\n        // Status \r\n    }\r\n    \r\n    mapping(uint => DegreeData) public DegreeDataList;\r\n    \r\n    // Function Used to Insert data to blockchain\r\n    function CreateDegree(string memory _nationIdCard, string memory _studentName, string memory _studentId, string memory _degreeTitle, string memory _universityName, string memory _degreeJSON) public returns (uint)\r\n    {\r\n        bytes32 _degreeHash = GetEthDegreeHash(_degreeTitle, _universityName, _degreeJSON);\r\n        DegreeDataList[NextDegreeId] = DegreeData(NextDegreeId, _nationIdCard, _studentName, _studentId, _degreeTitle, _universityName, _degreeJSON, _degreeHash, msg.sender);\r\n\r\n        NextDegreeId++;\r\n        return NextDegreeId - 1;\r\n    }\r\n\r\n    // Function to Generate QR-Code\r\n    function GetDegreeInfo(string memory _nationIdCard, string memory _degreeTitle, string memory _university) view public returns (bytes32, uint)\r\n    {\r\n        for(uint i= 0; i < NextStakeholderId; i++)\r\n        {\r\n            if(keccak256(abi.encodePacked((DegreeDataList[i].NationalIdentityCard))) == keccak256(abi.encodePacked((_nationIdCard))) \r\n            && keccak256(abi.encodePacked((DegreeDataList[i].DegreeTitle))) == keccak256(abi.encodePacked((_degreeTitle))) \r\n            && keccak256(abi.encodePacked((DegreeDataList[i].UniversityName))) == keccak256(abi.encodePacked((_university))))\r\n            {\r\n               return(DegreeDataList[i].DegreeHash, DegreeDataList[i].SerialNumber);\r\n            }\r\n        }\r\n    }\r\n\r\n    // Function to Generate QR-Code\r\n    function GetDegreeInfo(uint _degreeId) view public returns(uint, string memory, string memory, string memory, string memory, string memory, bytes32)\r\n    {\r\n        return(\r\n            DegreeDataList[_degreeId].SerialNumber,\r\n            DegreeDataList[_degreeId].NationalIdentityCard,\r\n            DegreeDataList[_degreeId].StudentName,\r\n            DegreeDataList[_degreeId].StudentId,\r\n            DegreeDataList[_degreeId].DegreeTitle, \r\n            DegreeDataList[_degreeId].UniversityName,\r\n            DegreeDataList[_degreeId].DegreeHash\r\n            ); \r\n    }\r\n\r\n    // Function Used to Verify Degree \r\n    function VerifyDegree(uint _degreeId, bytes32 _degreeRequestedHash) view public returns (string memory, string memory, string memory, string memory)\r\n    {\r\n        bytes32 _degreeComputedHash = GetEthDegreeHash(DegreeDataList[_degreeId].DegreeTitle, DegreeDataList[_degreeId].UniversityName, DegreeDataList[_degreeId].DegreeJSON);\r\n\r\n        if(_degreeComputedHash == _degreeRequestedHash)\r\n        {\r\n            return (DegreeDataList[_degreeId].NationalIdentityCard, DegreeDataList[_degreeId].StudentName, DegreeDataList[_degreeId].StudentId, DegreeDataList[_degreeId].DegreeTitle);\r\n        }\r\n    }\r\n\r\n    /*\r\n    // User Registration and Login\r\n    */\r\n    uint public NextStakeholderId;\r\n    string public SignUpStateMessage;\r\n    \r\n    struct Stakeholder\r\n    {\r\n        uint UniqueId;\r\n        string Username;\r\n        string UserPass;\r\n        string FullName;\r\n        address UserAddress;\r\n        bytes32 StakeholderHash;\r\n        string AccountType;\r\n    }\r\n    \r\n    mapping(uint => Stakeholder) public StakeholderList;\r\n\r\n    function SignupStakeholder(string memory _usermame, string memory _password, string memory _fullName, string memory _accountType) public returns (uint)\r\n    {\r\n        address sender = msg.sender;\r\n        address adminAddress = 0x99BC5c25Cd1750E386B9440C77b6e76b2b77C91A;\r\n\r\n        if(sender == adminAddress)\r\n        {\r\n            bytes32 _stakeHolderHash = GetEthDegreeHash(_usermame, _password, _password);\r\n\r\n            StakeholderList[NextStakeholderId] = Stakeholder(NextStakeholderId, _usermame, _password, _fullName, sender, _stakeHolderHash, _accountType);\r\n            NextStakeholderId++;\r\n            SignUpStateMessage = \"Successfully Signup, Permission Granted\";\r\n            return NextStakeholderId - 1;\r\n        }\r\n        SignUpStateMessage = \"Not Allowed to Signup, Permission Denied\";\r\n        return 0;\r\n    }\r\n    \r\n    // Function Used to Sign In dApp\r\n    function SignInStakeholder(string memory _usermame, string memory _password) view public returns(string memory)\r\n    {\r\n        for(uint i= 0; i < NextStakeholderId; i++)\r\n        {\r\n            if(keccak256(abi.encodePacked((StakeholderList[i].Username))) == keccak256(abi.encodePacked((_usermame))) &&  keccak256(abi.encodePacked((StakeholderList[i].UserPass))) == keccak256(abi.encodePacked((_password))))\r\n            {\r\n                bytes32 _stakeHolderHash = GetEthDegreeHash(_usermame, _password, _password);\r\n\r\n                if(StakeholderList[i].StakeholderHash == _stakeHolderHash)\r\n                {\r\n                   return _usermame;\r\n                }\r\n            }\r\n        }\r\n        return \"\";\r\n    }\r\n\r\n    /*    \r\n    // Create and Verifying Hash\r\n    */    \r\n    \r\n    function GetEthDegreeHash(string memory _degreeName, string memory _universityName, string memory _degreeJSON) public pure returns (bytes32)\r\n    {\r\n        bytes32 messageHash = GetMessageHash(_degreeName, _universityName, _degreeJSON);\r\n        bytes32 ethSignMessageHash = GetEthMessageSignedHash(messageHash);\r\n        \r\n        return ethSignMessageHash;\r\n    }\r\n    \r\n    function GetMessageHash(string memory _degreeName, string memory _universityName, string memory _degreeJSON) public pure returns (bytes32)\r\n    {\r\n        // have to add uniqueId in parameter to distinguish hash\r\n        return keccak256(abi.encodePacked(_degreeName, _universityName, _degreeJSON));\r\n    }\r\n    \r\n    function GetEthMessageSignedHash(bytes32 _messageHash) public pure returns (bytes32)\r\n    {\r\n        // prefix Ethereum signing message (32 bit) \r\n        // followed by length of message it required for ecrecover function\r\n        return keccak256(abi.encodePacked(\"\\x19Ethereum Signed Message:\\n32\", _messageHash));\r\n    }\r\n}",
  "sourcePath": "D:/Personal/Masters Related/Block chain/Project/eth-DegreeVerification/contracts/DegreeVerification.sol",
  "compiler": {
    "name": "solc",
    "version": "0.5.0+commit.1d4f565a.Emscripten.clang"
  },
  "schemaVersion": "3.0.1",
  "updatedAt": "2021-01-27T05:02:20.291Z",
  "devdoc": {
    "methods": {}
  },
  "userdoc": {
    "methods": {}
  }
}