{
  "contractName": "DegreeVerification",
  "abi": [
    {
      "constant": true,
      "inputs": [],
      "name": "NextDegreeId",
      "outputs": [
        {
          "name": "",
          "type": "uint256"
        }
      ],
      "payable": false,
      "stateMutability": "view",
      "type": "function",
      "signature": "0x0de425d0"
    },
    {
      "constant": true,
      "inputs": [
        {
          "name": "",
          "type": "uint256"
        }
      ],
      "name": "DegreeDataList",
      "outputs": [
        {
          "name": "SerialNumber",
          "type": "uint256"
        },
        {
          "name": "NationalIdentityCard",
          "type": "string"
        },
        {
          "name": "StudentName",
          "type": "string"
        },
        {
          "name": "StudentId",
          "type": "string"
        },
        {
          "name": "DegreeTitle",
          "type": "string"
        },
        {
          "name": "UniversityName",
          "type": "string"
        },
        {
          "name": "DegreeJSON",
          "type": "string"
        },
        {
          "name": "DegreeHash",
          "type": "bytes32"
        },
        {
          "name": "InsertedBy",
          "type": "address"
        }
      ],
      "payable": false,
      "stateMutability": "view",
      "type": "function",
      "signature": "0x4c4a71aa"
    },
    {
      "constant": true,
      "inputs": [],
      "name": "SignUpStateMessage",
      "outputs": [
        {
          "name": "",
          "type": "string"
        }
      ],
      "payable": false,
      "stateMutability": "view",
      "type": "function",
      "signature": "0x6b622683"
    },
    {
      "constant": true,
      "inputs": [
        {
          "name": "",
          "type": "uint256"
        }
      ],
      "name": "StakeholderList",
      "outputs": [
        {
          "name": "UniqueId",
          "type": "uint256"
        },
        {
          "name": "Username",
          "type": "string"
        },
        {
          "name": "UserPass",
          "type": "string"
        },
        {
          "name": "FullName",
          "type": "string"
        },
        {
          "name": "UserAddress",
          "type": "address"
        },
        {
          "name": "StakeholderHash",
          "type": "bytes32"
        },
        {
          "name": "AccountType",
          "type": "string"
        }
      ],
      "payable": false,
      "stateMutability": "view",
      "type": "function",
      "signature": "0xb4350a62"
    },
    {
      "constant": true,
      "inputs": [],
      "name": "NextStakeholderId",
      "outputs": [
        {
          "name": "",
          "type": "uint256"
        }
      ],
      "payable": false,
      "stateMutability": "view",
      "type": "function",
      "signature": "0xd761b4a9"
    },
    {
      "constant": false,
      "inputs": [
        {
          "name": "_nationIdCard",
          "type": "string"
        },
        {
          "name": "_studentName",
          "type": "string"
        },
        {
          "name": "_studentId",
          "type": "string"
        },
        {
          "name": "_degreeTitle",
          "type": "string"
        },
        {
          "name": "_universityName",
          "type": "string"
        },
        {
          "name": "_degreeJSON",
          "type": "string"
        }
      ],
      "name": "CreateDegree",
      "outputs": [
        {
          "name": "",
          "type": "uint256"
        }
      ],
      "payable": false,
      "stateMutability": "nonpayable",
      "type": "function",
      "signature": "0x2500c04c"
    },
    {
      "constant": true,
      "inputs": [
        {
          "name": "_degreeId",
          "type": "uint256"
        }
      ],
      "name": "GetDegreeInfo",
      "outputs": [
        {
          "name": "",
          "type": "uint256"
        },
        {
          "name": "",
          "type": "string"
        },
        {
          "name": "",
          "type": "string"
        },
        {
          "name": "",
          "type": "string"
        },
        {
          "name": "",
          "type": "string"
        },
        {
          "name": "",
          "type": "string"
        },
        {
          "name": "",
          "type": "bytes32"
        }
      ],
      "payable": false,
      "stateMutability": "view",
      "type": "function",
      "signature": "0x79986a9b"
    },
    {
      "constant": true,
      "inputs": [
        {
          "name": "_nationIdCard",
          "type": "string"
        },
        {
          "name": "_degreeTitle",
          "type": "string"
        },
        {
          "name": "_university",
          "type": "string"
        }
      ],
      "name": "GetDegreeInfo",
      "outputs": [
        {
          "name": "",
          "type": "bytes32"
        },
        {
          "name": "",
          "type": "uint256"
        }
      ],
      "payable": false,
      "stateMutability": "view",
      "type": "function",
      "signature": "0xfe9a51ee"
    },
    {
      "constant": true,
      "inputs": [
        {
          "name": "_degreeId",
          "type": "uint256"
        },
        {
          "name": "_degreeRequestedHash",
          "type": "bytes32"
        }
      ],
      "name": "VerifyDegree",
      "outputs": [
        {
          "name": "",
          "type": "uint256"
        },
        {
          "name": "",
          "type": "string"
        },
        {
          "name": "",
          "type": "string"
        },
        {
          "name": "",
          "type": "string"
        },
        {
          "name": "",
          "type": "string"
        },
        {
          "name": "",
          "type": "address"
        }
      ],
      "payable": false,
      "stateMutability": "view",
      "type": "function",
      "signature": "0xc30392ff"
    },
    {
      "constant": false,
      "inputs": [
        {
          "name": "_username",
          "type": "string"
        },
        {
          "name": "_userAddress",
          "type": "address"
        },
        {
          "name": "_password",
          "type": "string"
        },
        {
          "name": "_fullName",
          "type": "string"
        },
        {
          "name": "_accountType",
          "type": "string"
        }
      ],
      "name": "SignupStakeholder",
      "outputs": [
        {
          "name": "",
          "type": "uint256"
        }
      ],
      "payable": false,
      "stateMutability": "nonpayable",
      "type": "function",
      "signature": "0x9246700f"
    },
    {
      "constant": true,
      "inputs": [
        {
          "name": "_usermame",
          "type": "string"
        },
        {
          "name": "_password",
          "type": "string"
        }
      ],
      "name": "SignInStakeholder",
      "outputs": [
        {
          "name": "",
          "type": "string"
        }
      ],
      "payable": false,
      "stateMutability": "view",
      "type": "function",
      "signature": "0x63aeb9a5"
    },
    {
      "constant": true,
      "inputs": [
        {
          "name": "_degreeName",
          "type": "string"
        },
        {
          "name": "_universityName",
          "type": "string"
        },
        {
          "name": "_degreeJSON",
          "type": "string"
        }
      ],
      "name": "GetEthDegreeHash",
      "outputs": [
        {
          "name": "",
          "type": "bytes32"
        }
      ],
      "payable": false,
      "stateMutability": "pure",
      "type": "function",
      "signature": "0x882c6d06"
    },
    {
      "constant": true,
      "inputs": [
        {
          "name": "_degreeName",
          "type": "string"
        },
        {
          "name": "_universityName",
          "type": "string"
        },
        {
          "name": "_degreeJSON",
          "type": "string"
        }
      ],
      "name": "GetMessageHash",
      "outputs": [
        {
          "name": "",
          "type": "bytes32"
        }
      ],
      "payable": false,
      "stateMutability": "pure",
      "type": "function",
      "signature": "0x6bb98e66"
    },
    {
      "constant": true,
      "inputs": [
        {
          "name": "_messageHash",
          "type": "bytes32"
        }
      ],
      "name": "GetEthMessageSignedHash",
      "outputs": [
        {
          "name": "",
          "type": "bytes32"
        }
      ],
      "payable": false,
      "stateMutability": "pure",
      "type": "function",
      "signature": "0xebd58427"
    }
  ],
  "bytecode": "0x608060405234801561001057600080fd5b50613110806100206000396000f3fe6080604052600436106100cf5763ffffffff7c01000000000000000000000000000000000000000000000000000000006000350416630de425d081146100d45780632500c04c146100fb5780634c4a71aa1461045157806363aeb9a51461071b5780636b622683146108ca5780636bb98e66146108df57806379986a9b14610aa0578063882c6d0614610ce85780639246700f14610ea9578063b4350a6214611102578063c30392ff146112fd578063d761b4a9146114f7578063ebd584271461150c578063fe9a51ee14611536575b600080fd5b3480156100e057600080fd5b506100e9611710565b60408051918252519081900360200190f35b34801561010757600080fd5b506100e9600480360360c081101561011e57600080fd5b81019060208101813564010000000081111561013957600080fd5b82018360208201111561014b57600080fd5b8035906020019184600183028401116401000000008311171561016d57600080fd5b91908080601f01602080910402602001604051908101604052809392919081815260200183838082843760009201919091525092959493602081019350359150506401000000008111156101c057600080fd5b8201836020820111156101d257600080fd5b803590602001918460018302840111640100000000831117156101f457600080fd5b91908080601f016020809104026020016040519081016040528093929190818152602001838380828437600092019190915250929594936020810193503591505064010000000081111561024757600080fd5b82018360208201111561025957600080fd5b8035906020019184600183028401116401000000008311171561027b57600080fd5b91908080601f01602080910402602001604051908101604052809392919081815260200183838082843760009201919091525092959493602081019350359150506401000000008111156102ce57600080fd5b8201836020820111156102e057600080fd5b8035906020019184600183028401116401000000008311171561030257600080fd5b91908080601f016020809104026020016040519081016040528093929190818152602001838380828437600092019190915250929594936020810193503591505064010000000081111561035557600080fd5b82018360208201111561036757600080fd5b8035906020019184600183028401116401000000008311171561038957600080fd5b91908080601f01602080910402602001604051908101604052809392919081815260200183838082843760009201919091525092959493602081019350359150506401000000008111156103dc57600080fd5b8201836020820111156103ee57600080fd5b8035906020019184600183028401116401000000008311171561041057600080fd5b91908080601f016020809104026020016040519081016040528093929190818152602001838380828437600092019190915250929550611716945050505050565b34801561045d57600080fd5b5061047b6004803603602081101561047457600080fd5b503561187c565b604051808a815260200180602001806020018060200180602001806020018060200189815260200188600160a060020a0316600160a060020a0316815260200187810387528f818151815260200191508051906020019080838360005b838110156104f05781810151838201526020016104d8565b50505050905090810190601f16801561051d5780820380516001836020036101000a031916815260200191505b5087810386528e818151815260200191508051906020019080838360005b8381101561055357818101518382015260200161053b565b50505050905090810190601f1680156105805780820380516001836020036101000a031916815260200191505b5087810385528d5181528d516020918201918f019080838360005b838110156105b357818101518382015260200161059b565b50505050905090810190601f1680156105e05780820380516001836020036101000a031916815260200191505b5087810384528c5181528c516020918201918e019080838360005b838110156106135781810151838201526020016105fb565b50505050905090810190601f1680156106405780820380516001836020036101000a031916815260200191505b5087810383528b5181528b516020918201918d019080838360005b8381101561067357818101518382015260200161065b565b50505050905090810190601f1680156106a05780820380516001836020036101000a031916815260200191505b5087810382528a5181528a516020918201918c019080838360005b838110156106d35781810151838201526020016106bb565b50505050905090810190601f1680156107005780820380516001836020036101000a031916815260200191505b509f5050505050505050505050505050505060405180910390f35b34801561072757600080fd5b506108556004803603604081101561073e57600080fd5b81019060208101813564010000000081111561075957600080fd5b82018360208201111561076b57600080fd5b8035906020019184600183028401116401000000008311171561078d57600080fd5b91908080601f01602080910402602001604051908101604052809392919081815260200183838082843760009201919091525092959493602081019350359150506401000000008111156107e057600080fd5b8201836020820111156107f257600080fd5b8035906020019184600183028401116401000000008311171561081457600080fd5b91908080601f016020809104026020016040519081016040528093929190818152602001838380828437600092019190915250929550611c0a945050505050565b6040805160208082528351818301528351919283929083019185019080838360005b8381101561088f578181015183820152602001610877565b50505050905090810190601f1680156108bc5780820380516001836020036101000a031916815260200191505b509250505060405180910390f35b3480156108d657600080fd5b50610855611ea4565b3480156108eb57600080fd5b506100e96004803603606081101561090257600080fd5b81019060208101813564010000000081111561091d57600080fd5b82018360208201111561092f57600080fd5b8035906020019184600183028401116401000000008311171561095157600080fd5b91908080601f01602080910402602001604051908101604052809392919081815260200183838082843760009201919091525092959493602081019350359150506401000000008111156109a457600080fd5b8201836020820111156109b657600080fd5b803590602001918460018302840111640100000000831117156109d857600080fd5b91908080601f0160208091040260200160405190810160405280939291908181526020018383808284376000920191909152509295949360208101935035915050640100000000811115610a2b57600080fd5b820183602082011115610a3d57600080fd5b80359060200191846001830284011164010000000083111715610a5f57600080fd5b91908080601f016020809104026020016040519081016040528093929190818152602001838380828437600092019190915250929550611f32945050505050565b348015610aac57600080fd5b50610aca60048036036020811015610ac357600080fd5b503561203f565b60405180888152602001806020018060200180602001806020018060200187815260200186810386528c818151815260200191508051906020019080838360005b83811015610b23578181015183820152602001610b0b565b50505050905090810190601f168015610b505780820380516001836020036101000a031916815260200191505b5086810385528b5181528b516020918201918d019080838360005b83811015610b83578181015183820152602001610b6b565b50505050905090810190601f168015610bb05780820380516001836020036101000a031916815260200191505b5086810384528a5181528a516020918201918c019080838360005b83811015610be3578181015183820152602001610bcb565b50505050905090810190601f168015610c105780820380516001836020036101000a031916815260200191505b5086810383528951815289516020918201918b019080838360005b83811015610c43578181015183820152602001610c2b565b50505050905090810190601f168015610c705780820380516001836020036101000a031916815260200191505b5086810382528851815288516020918201918a019080838360005b83811015610ca3578181015183820152602001610c8b565b50505050905090810190601f168015610cd05780820380516001836020036101000a031916815260200191505b509c5050505050505050505050505060405180910390f35b348015610cf457600080fd5b506100e960048036036060811015610d0b57600080fd5b810190602081018135640100000000811115610d2657600080fd5b820183602082011115610d3857600080fd5b80359060200191846001830284011164010000000083111715610d5a57600080fd5b91908080601f0160208091040260200160405190810160405280939291908181526020018383808284376000920191909152509295949360208101935035915050640100000000811115610dad57600080fd5b820183602082011115610dbf57600080fd5b80359060200191846001830284011164010000000083111715610de157600080fd5b91908080601f0160208091040260200160405190810160405280939291908181526020018383808284376000920191909152509295949360208101935035915050640100000000811115610e3457600080fd5b820183602082011115610e4657600080fd5b80359060200191846001830284011164010000000083111715610e6857600080fd5b91908080601f016020809104026020016040519081016040528093929190818152602001838380828437600092019190915250929550612354945050505050565b348015610eb557600080fd5b506100e9600480360360a0811015610ecc57600080fd5b810190602081018135640100000000811115610ee757600080fd5b820183602082011115610ef957600080fd5b80359060200191846001830284011164010000000083111715610f1b57600080fd5b91908080601f0160208091040260200160405190810160405280939291908181526020018383808284376000920191909152509295600160a060020a03853516959094909350604081019250602001359050640100000000811115610f7f57600080fd5b820183602082011115610f9157600080fd5b80359060200191846001830284011164010000000083111715610fb357600080fd5b91908080601f016020809104026020016040519081016040528093929190818152602001838380828437600092019190915250929594936020810193503591505064010000000081111561100657600080fd5b82018360208201111561101857600080fd5b8035906020019184600183028401116401000000008311171561103a57600080fd5b91908080601f016020809104026020016040519081016040528093929190818152602001838380828437600092019190915250929594936020810193503591505064010000000081111561108d57600080fd5b82018360208201111561109f57600080fd5b803590602001918460018302840111640100000000831117156110c157600080fd5b91908080601f016020809104026020016040519081016040528093929190818152602001838380828437600092019190915250929550612379945050505050565b34801561110e57600080fd5b5061112c6004803603602081101561112557600080fd5b50356125a9565b6040518088815260200180602001806020018060200187600160a060020a0316600160a060020a031681526020018681526020018060200185810385528b818151815260200191508051906020019080838360005b83811015611199578181015183820152602001611181565b50505050905090810190601f1680156111c65780820380516001836020036101000a031916815260200191505b5085810384528a5181528a516020918201918c019080838360005b838110156111f95781810151838201526020016111e1565b50505050905090810190601f1680156112265780820380516001836020036101000a031916815260200191505b5085810383528951815289516020918201918b019080838360005b83811015611259578181015183820152602001611241565b50505050905090810190601f1680156112865780820380516001836020036101000a031916815260200191505b50858103825286518152865160209182019188019080838360005b838110156112b95781810151838201526020016112a1565b50505050905090810190601f1680156112e65780820380516001836020036101000a031916815260200191505b509b50505050505050505050505060405180910390f35b34801561130957600080fd5b5061132d6004803603604081101561132057600080fd5b5080359060200135612818565b604051808781526020018060200180602001806020018060200186600160a060020a0316600160a060020a0316815260200185810385528a818151815260200191508051906020019080838360005b8381101561139457818101518382015260200161137c565b50505050905090810190601f1680156113c15780820380516001836020036101000a031916815260200191505b5085810384528951815289516020918201918b019080838360005b838110156113f45781810151838201526020016113dc565b50505050905090810190601f1680156114215780820380516001836020036101000a031916815260200191505b5085810383528851815288516020918201918a019080838360005b8381101561145457818101518382015260200161143c565b50505050905090810190601f1680156114815780820380516001836020036101000a031916815260200191505b50858103825287518152875160209182019189019080838360005b838110156114b457818101518382015260200161149c565b50505050905090810190601f1680156114e15780820380516001836020036101000a031916815260200191505b509a505050505050505050505060405180910390f35b34801561150357600080fd5b506100e9612ca3565b34801561151857600080fd5b506100e96004803603602081101561152f57600080fd5b5035612ca9565b34801561154257600080fd5b506116f76004803603606081101561155957600080fd5b81019060208101813564010000000081111561157457600080fd5b82018360208201111561158657600080fd5b803590602001918460018302840111640100000000831117156115a857600080fd5b91908080601f01602080910402602001604051908101604052809392919081815260200183838082843760009201919091525092959493602081019350359150506401000000008111156115fb57600080fd5b82018360208201111561160d57600080fd5b8035906020019184600183028401116401000000008311171561162f57600080fd5b91908080601f016020809104026020016040519081016040528093929190818152602001838380828437600092019190915250929594936020810193503591505064010000000081111561168257600080fd5b82018360208201111561169457600080fd5b803590602001918460018302840111640100000000831117156116b657600080fd5b91908080601f016020809104026020016040519081016040528093929190818152602001838380828437600092019190915250929550612cfa945050505050565b6040805192835260208301919091528051918290030190f35b60005481565b600080611724858585612354565b60408051610120810182526000805480835260208084018e81528486018e9052606085018d9052608085018c905260a085018b905260c085018a905260e085018790523361010086015291835260018082529490922083518155905180519596509294909361179893908501920190613049565b50604082015180516117b4916002840191602090910190613049565b50606082015180516117d0916003840191602090910190613049565b50608082015180516117ec916004840191602090910190613049565b5060a08201518051611808916005840191602090910190613049565b5060c08201518051611824916006840191602090910190613049565b5060e08201516007820155610100909101516008909101805473ffffffffffffffffffffffffffffffffffffffff1916600160a060020a03909216919091179055505060008054600181019091559695505050505050565b600160208181526000928352604092839020805481840180548651600296821615610100026000190190911695909504601f810185900485028601850190965285855290949193929091908301828280156119185780601f106118ed57610100808354040283529160200191611918565b820191906000526020600020905b8154815290600101906020018083116118fb57829003601f168201915b50505060028085018054604080516020601f60001961010060018716150201909416959095049283018590048502810185019091528181529596959450909250908301828280156119aa5780601f1061197f576101008083540402835291602001916119aa565b820191906000526020600020905b81548152906001019060200180831161198d57829003601f168201915b5050505060038301805460408051602060026001851615610100026000190190941693909304601f8101849004840282018401909252818152949594935090830182828015611a3a5780601f10611a0f57610100808354040283529160200191611a3a565b820191906000526020600020905b815481529060010190602001808311611a1d57829003601f168201915b5050505060048301805460408051602060026001851615610100026000190190941693909304601f8101849004840282018401909252818152949594935090830182828015611aca5780601f10611a9f57610100808354040283529160200191611aca565b820191906000526020600020905b815481529060010190602001808311611aad57829003601f168201915b5050505060058301805460408051602060026001851615610100026000190190941693909304601f8101849004840282018401909252818152949594935090830182828015611b5a5780601f10611b2f57610100808354040283529160200191611b5a565b820191906000526020600020905b815481529060010190602001808311611b3d57829003601f168201915b5050505060068301805460408051602060026001851615610100026000190190941693909304601f8101849004840282018401909252818152949594935090830182828015611bea5780601f10611bbf57610100808354040283529160200191611bea565b820191906000526020600020905b815481529060010190602001808311611bcd57829003601f168201915b505050506007830154600890930154919291600160a060020a0316905089565b60603360005b600254811015611e8a57846040516020018082805190602001908083835b60208310611c4d5780518252601f199092019160209182019101611c2e565b6001836020036101000a03801982511681845116808217855250505050505090500191505060405160208183030381529060405280519060200120600460008381526020019081526020016000206001016040516020018082805460018160011615610100020316600290048015611cfc5780601f10611cda576101008083540402835291820191611cfc565b820191906000526020600020905b815481529060010190602001808311611ce8575b505091505060405160208183030381529060405280519060200120148015611e1e5750836040516020018082805190602001908083835b60208310611d525780518252601f199092019160209182019101611d33565b6001836020036101000a03801982511681845116808217855250505050505090500191505060405160208183030381529060405280519060200120600460008381526020019081526020016000206002016040516020018082805460018160011615610100020316600290048015611e015780601f10611ddf576101008083540402835291820191611e01565b820191906000526020600020905b815481529060010190602001808311611ded575b505091505060405160208183030381529060405280519060200120145b15611e82576000611e30868687612354565b60008381526004602052604090206005015490915081148015611e70575060008281526004602081905260409091200154600160a060020a038481169116145b15611e8057859350505050611e9e565b505b600101611c10565b505060408051602081019091526000815290505b92915050565b6003805460408051602060026001851615610100026000190190941693909304601f81018490048402820184019092528181529291830182828015611f2a5780601f10611eff57610100808354040283529160200191611f2a565b820191906000526020600020905b815481529060010190602001808311611f0d57829003601f168201915b505050505081565b60008383836040516020018084805190602001908083835b60208310611f695780518252601f199092019160209182019101611f4a565b51815160209384036101000a600019018019909216911617905286519190930192860191508083835b60208310611fb15780518252601f199092019160209182019101611f92565b51815160209384036101000a600019018019909216911617905285519190930192850191508083835b60208310611ff95780518252601f199092019160209182019101611fda565b6001836020036101000a03801982511681845116808217855250505050505090500193505050506040516020818303038152906040528051906020012090509392505050565b600081815260016020818152604080842080546007820154828601805485516002988216156101000260001901909116889004601f810188900488028201880190965285815260609788978897889788978d97909695948201946003830194600484019460059094019388918301828280156120fc5780601f106120d1576101008083540402835291602001916120fc565b820191906000526020600020905b8154815290600101906020018083116120df57829003601f168201915b5050885460408051602060026001851615610100026000190190941693909304601f8101849004840282018401909252818152959b508a94509250840190508282801561218a5780601f1061215f5761010080835404028352916020019161218a565b820191906000526020600020905b81548152906001019060200180831161216d57829003601f168201915b5050875460408051602060026001851615610100026000190190941693909304601f8101849004840282018401909252818152959a50899450925084019050828280156122185780601f106121ed57610100808354040283529160200191612218565b820191906000526020600020905b8154815290600101906020018083116121fb57829003601f168201915b5050865460408051602060026001851615610100026000190190941693909304601f8101849004840282018401909252818152959950889450925084019050828280156122a65780601f1061227b576101008083540402835291602001916122a6565b820191906000526020600020905b81548152906001019060200180831161228957829003601f168201915b5050855460408051602060026001851615610100026000190190941693909304601f8101849004840282018401909252818152959850879450925084019050828280156123345780601f1061230957610100808354040283529160200191612334565b820191906000526020600020905b81548152906001019060200180831161231757829003601f168201915b505050505091509650965096509650965096509650919395979092949650565b600080612362858585611f32565b9050600061236f82612ca9565b9695505050505050565b60003373a1d1edb18c71a5e193f09366203f5efd23ebbe8d8082141561252c5760006123a6898889612354565b6040805160e08101825260025480825260208083018e81528385018d9052606084018c9052600160a060020a038e16608085015260a0840186905260c084018b905260009283526004825293909120825181559251805194955091936124129260018501920190613049565b506040820151805161242e916002840191602090910190613049565b506060820151805161244a916003840191602090910190613049565b50608082015160048201805473ffffffffffffffffffffffffffffffffffffffff1916600160a060020a0390921691909117905560a0820151600582015560c082015180516124a3916006840191602090910190613049565b5050600280546001019055506040805160608101825260278082527f5375636365737366756c6c79205369676e75702c205065726d697373696f6e20602083019081527f4772616e74656400000000000000000000000000000000000000000000000000929093019190915261251b91600391613049565b5060016002540393505050506125a0565b6040805160608101825260288082527f4e6f7420416c6c6f77656420746f205369676e75702c205065726d697373696f602083019081527f6e2044656e696564000000000000000000000000000000000000000000000000929093019190915261259891600391613049565b506000925050505b95945050505050565b6004602090815260009182526040918290208054600180830180548651600293821615610100026000190190911692909204601f8101869004860283018601909652858252919492939092908301828280156126465780601f1061261b57610100808354040283529160200191612646565b820191906000526020600020905b81548152906001019060200180831161262957829003601f168201915b50505060028085018054604080516020601f60001961010060018716150201909416959095049283018590048502810185019091528181529596959450909250908301828280156126d85780601f106126ad576101008083540402835291602001916126d8565b820191906000526020600020905b8154815290600101906020018083116126bb57829003601f168201915b5050505060038301805460408051602060026001851615610100026000190190941693909304601f81018490048402820184019092528181529495949350908301828280156127685780601f1061273d57610100808354040283529160200191612768565b820191906000526020600020905b81548152906001019060200180831161274b57829003601f168201915b505050506004830154600584015460068501805460408051602060026101006001861615026000190190941693909304601f81018490048402820184019092528181529697600160a060020a03909516969395509083018282801561280e5780601f106127e35761010080835404028352916020019161280e565b820191906000526020600020905b8154815290600101906020018083116127f157829003601f168201915b5050505050905087565b6000606080606080600080612a10600160008b81526020019081526020016000206004018054600181600116156101000203166002900480601f0160208091040260200160405190810160405280929190818152602001828054600181600116156101000203166002900480156128d05780601f106128a5576101008083540402835291602001916128d0565b820191906000526020600020905b8154815290600101906020018083116128b357829003601f168201915b50505060008d81526001602081815260409283902060050180548451600294821615610100026000190190911693909304601f810183900483028401830190945283835291945090925083018282801561296b5780601f106129405761010080835404028352916020019161296b565b820191906000526020600020905b81548152906001019060200180831161294e57829003601f168201915b50505060008e81526001602081815260409283902060060180548451600294821615610100026000190190911693909304601f8101839004830284018301909452838352919450909250830182828015612a065780601f106129db57610100808354040283529160200191612a06565b820191906000526020600020905b8154815290600101906020018083116129e957829003601f168201915b5050505050612354565b905087811415612c97576000898152600160208181526040928390208054600882015482850180548751601f600260001999841615610100029990990190921688900491820187900487028101870190985280885292969095840194600385019460040193600160a060020a03909316928791830182828015612ad45780601f10612aa957610100808354040283529160200191612ad4565b820191906000526020600020905b815481529060010190602001808311612ab757829003601f168201915b5050875460408051602060026001851615610100026000190190941693909304601f8101849004840282018401909252818152959a5089945092508401905082828015612b625780601f10612b3757610100808354040283529160200191612b62565b820191906000526020600020905b815481529060010190602001808311612b4557829003601f168201915b5050865460408051602060026001851615610100026000190190941693909304601f810184900484028201840190925281815295995088945092508401905082828015612bf05780601f10612bc557610100808354040283529160200191612bf0565b820191906000526020600020905b815481529060010190602001808311612bd357829003601f168201915b5050855460408051602060026001851615610100026000190190941693909304601f810184900484028201840190925281815295985087945092508401905082828015612c7e5780601f10612c5357610100808354040283529160200191612c7e565b820191906000526020600020905b815481529060010190602001808311612c6157829003601f168201915b5050505050915096509650965096509650965050612c99565b505b9295509295509295565b60025481565b604080517f19457468657265756d205369676e6564204d6573736167653a0a333200000000602080830191909152603c8083019490945282518083039094018452605c909101909152815191012090565b600080805b60025481101561303f57856040516020018082805190602001908083835b60208310612d3c5780518252601f199092019160209182019101612d1d565b6001836020036101000a03801982511681845116808217855250505050505090500191505060405160208183030381529060405280519060200120600160008381526020019081526020016000206001016040516020018082805460018160011615610100020316600290048015612deb5780601f10612dc9576101008083540402835291820191612deb565b820191906000526020600020905b815481529060010190602001808311612dd7575b505091505060405160208183030381529060405280519060200120148015612f0d5750846040516020018082805190602001908083835b60208310612e415780518252601f199092019160209182019101612e22565b6001836020036101000a03801982511681845116808217855250505050505090500191505060405160208183030381529060405280519060200120600160008381526020019081526020016000206004016040516020018082805460018160011615610100020316600290048015612ef05780601f10612ece576101008083540402835291820191612ef0565b820191906000526020600020905b815481529060010190602001808311612edc575b505091505060405160208183030381529060405280519060200120145b80156130135750836040516020018082805190602001908083835b60208310612f475780518252601f199092019160209182019101612f28565b6001836020036101000a03801982511681845116808217855250505050505090500191505060405160208183030381529060405280519060200120600160008381526020019081526020016000206005016040516020018082805460018160011615610100020316600290048015612ff65780601f10612fd4576101008083540402835291820191612ff6565b820191906000526020600020905b815481529060010190602001808311612fe2575b505091505060405160208183030381529060405280519060200120145b15613037576000908152600160205260409020600781015490549092509050613041565b600101612cff565b505b935093915050565b828054600181600116156101000203166002900490600052602060002090601f016020900481019282601f1061308a57805160ff19168380011785556130b7565b828001600101855582156130b7579182015b828111156130b757825182559160200191906001019061309c565b506130c39291506130c7565b5090565b6130e191905b808211156130c357600081556001016130cd565b9056fea165627a7a72305820765d8f94ff9119c316e386a3dea4cc8c2e1170bf8fa299dee5faca4193156ded0029",
  "source": "pragma solidity ^0.5.0;\r\n\r\ncontract DegreeVerification\r\n{\r\n    uint public NextDegreeId;\r\n    \r\n    struct DegreeData\r\n    {\r\n        uint SerialNumber;\r\n        string NationalIdentityCard;\r\n        string StudentName;\r\n        string StudentId;\r\n        string DegreeTitle;\r\n        string UniversityName;\r\n        string DegreeJSON;\r\n        bytes32 DegreeHash;\r\n        address InsertedBy;\r\n        // Status \r\n    }\r\n    \r\n    mapping(uint => DegreeData) public DegreeDataList;\r\n    \r\n    // Function Used to Insert data to blockchain\r\n    function CreateDegree(string memory _nationIdCard, string memory _studentName, string memory _studentId, string memory _degreeTitle, string memory _universityName, string memory _degreeJSON) public returns (uint)\r\n    {\r\n        bytes32 _degreeHash = GetEthDegreeHash(_degreeTitle, _universityName, _degreeJSON);\r\n        DegreeDataList[NextDegreeId] = DegreeData(NextDegreeId, _nationIdCard, _studentName, _studentId, _degreeTitle, _universityName, _degreeJSON, _degreeHash, msg.sender);\r\n\r\n        NextDegreeId++;\r\n        return NextDegreeId - 1;\r\n    }\r\n\r\n    // Function to Generate QR-Code\r\n    function GetDegreeInfo(string memory _nationIdCard, string memory _degreeTitle, string memory _university) view public returns (bytes32, uint)\r\n    {\r\n        for(uint i= 0; i < NextStakeholderId; i++)\r\n        {\r\n            if(keccak256(abi.encodePacked((DegreeDataList[i].NationalIdentityCard))) == keccak256(abi.encodePacked((_nationIdCard))) \r\n            && keccak256(abi.encodePacked((DegreeDataList[i].DegreeTitle))) == keccak256(abi.encodePacked((_degreeTitle))) \r\n            && keccak256(abi.encodePacked((DegreeDataList[i].UniversityName))) == keccak256(abi.encodePacked((_university))))\r\n            {\r\n               return(DegreeDataList[i].DegreeHash, DegreeDataList[i].SerialNumber);\r\n            }\r\n        }\r\n    }\r\n\r\n    // Function to Generate QR-Code\r\n    function GetDegreeInfo(uint _degreeId) view public returns(uint, string memory, string memory, string memory, string memory, string memory, bytes32)\r\n    {\r\n        return(\r\n            DegreeDataList[_degreeId].SerialNumber,\r\n            DegreeDataList[_degreeId].NationalIdentityCard,\r\n            DegreeDataList[_degreeId].StudentName,\r\n            DegreeDataList[_degreeId].StudentId,\r\n            DegreeDataList[_degreeId].DegreeTitle, \r\n            DegreeDataList[_degreeId].UniversityName,\r\n            DegreeDataList[_degreeId].DegreeHash\r\n            ); \r\n    }\r\n\r\n    // Function Used to Verify Degree \r\n    function VerifyDegree(uint _degreeId, bytes32 _degreeRequestedHash) view public returns (uint, string memory, string memory, string memory, string memory, address)\r\n    {\r\n        bytes32 _degreeComputedHash = GetEthDegreeHash(DegreeDataList[_degreeId].DegreeTitle, DegreeDataList[_degreeId].UniversityName, DegreeDataList[_degreeId].DegreeJSON);\r\n\r\n        if(_degreeComputedHash == _degreeRequestedHash)\r\n        {\r\n            return (DegreeDataList[_degreeId].SerialNumber, DegreeDataList[_degreeId].NationalIdentityCard, DegreeDataList[_degreeId].StudentName, DegreeDataList[_degreeId].StudentId, DegreeDataList[_degreeId].DegreeTitle, DegreeDataList[_degreeId].InsertedBy);\r\n        }\r\n    }\r\n\r\n    /*\r\n    // User Registration and Login\r\n    */\r\n    uint public NextStakeholderId;\r\n    string public SignUpStateMessage;\r\n    \r\n    struct Stakeholder\r\n    {\r\n        uint UniqueId;\r\n        string Username;\r\n        string UserPass;\r\n        string FullName;\r\n        address UserAddress;\r\n        bytes32 StakeholderHash;\r\n        string AccountType;\r\n    }\r\n    \r\n    mapping(uint => Stakeholder) public StakeholderList;\r\n\r\n    function SignupStakeholder(string memory _username, address _userAddress, string memory _password, string memory _fullName, string memory _accountType) public returns (uint)\r\n    {\r\n        address senderAddress = msg.sender;\r\n        address adminAddress = 0xa1D1edb18C71a5E193F09366203f5EfD23EBBe8d;\r\n\r\n        if(senderAddress == adminAddress)\r\n        {\r\n            bytes32 _stakeHolderHash = GetEthDegreeHash(_username, _password, _password);\r\n\r\n            StakeholderList[NextStakeholderId] = Stakeholder(NextStakeholderId, _username, _password, _fullName, _userAddress, _stakeHolderHash, _accountType);\r\n            NextStakeholderId++;\r\n            SignUpStateMessage = \"Successfully Signup, Permission Granted\";\r\n            return NextStakeholderId - 1;\r\n        }\r\n        SignUpStateMessage = \"Not Allowed to Signup, Permission Denied\";\r\n        return 0;\r\n    }\r\n    \r\n    // Function Used to Sign In dApp\r\n    function SignInStakeholder(string memory _usermame, string memory _password) view public returns(string memory)\r\n    {\r\n        address senderAddress = msg.sender;\r\n        for(uint i= 0; i < NextStakeholderId; i++)\r\n        {\r\n            if(keccak256(abi.encodePacked((StakeholderList[i].Username))) == keccak256(abi.encodePacked((_usermame))) &&  keccak256(abi.encodePacked((StakeholderList[i].UserPass))) == keccak256(abi.encodePacked((_password))))\r\n            {\r\n                bytes32 _stakeHolderHash = GetEthDegreeHash(_usermame, _password, _password);\r\n                // (StakeholderList[i].StakeholderHash == _stakeHolderHash && StakeholderList[i].UserAddress ==  senderAddress)\r\n                if(StakeholderList[i].StakeholderHash == _stakeHolderHash && StakeholderList[i].UserAddress ==  senderAddress)\r\n                {\r\n                    return _usermame;\r\n                }\r\n            }\r\n        }\r\n        return \"\";\r\n    }\r\n\r\n    /*    \r\n    // Create and Verifying Hash\r\n    */    \r\n    \r\n    function GetEthDegreeHash(string memory _degreeName, string memory _universityName, string memory _degreeJSON) public pure returns (bytes32)\r\n    {\r\n        bytes32 messageHash = GetMessageHash(_degreeName, _universityName, _degreeJSON);\r\n        bytes32 ethSignMessageHash = GetEthMessageSignedHash(messageHash);\r\n        \r\n        return ethSignMessageHash;\r\n    }\r\n    \r\n    function GetMessageHash(string memory _degreeName, string memory _universityName, string memory _degreeJSON) public pure returns (bytes32)\r\n    {\r\n        // have to add uniqueId in parameter to distinguish hash\r\n        return keccak256(abi.encodePacked(_degreeName, _universityName, _degreeJSON));\r\n    }\r\n    \r\n    function GetEthMessageSignedHash(bytes32 _messageHash) public pure returns (bytes32)\r\n    {\r\n        // prefix Ethereum signing message (32 bit) \r\n        // followed by length of message it required for ecrecover function\r\n        return keccak256(abi.encodePacked(\"\\x19Ethereum Signed Message:\\n32\", _messageHash));\r\n    }\r\n}",
  "sourcePath": "D:/Personal/Masters Related/Block chain/Project/eth-DegreeVerification/contracts/DegreeVerification.sol",
  "compiler": {
    "name": "solc",
    "version": "0.5.0+commit.1d4f565a.Emscripten.clang"
  },
  "schemaVersion": "3.0.1",
  "updatedAt": "2021-02-26T17:11:05.414Z",
  "devdoc": {
    "methods": {}
  },
  "userdoc": {
    "methods": {}
  }
}