{
  "contractName": "DegreeVerification",
  "abi": [
    {
      "constant": true,
      "inputs": [],
      "name": "NextDegreeId",
      "outputs": [
        {
          "name": "",
          "type": "uint256"
        }
      ],
      "payable": false,
      "stateMutability": "view",
      "type": "function",
      "signature": "0x0de425d0"
    },
    {
      "constant": true,
      "inputs": [
        {
          "name": "",
          "type": "uint256"
        }
      ],
      "name": "DegreeDataList",
      "outputs": [
        {
          "name": "SerialNumber",
          "type": "uint256"
        },
        {
          "name": "NationalIdentityCard",
          "type": "string"
        },
        {
          "name": "StudentName",
          "type": "string"
        },
        {
          "name": "StudentId",
          "type": "string"
        },
        {
          "name": "DegreeTitle",
          "type": "string"
        },
        {
          "name": "UniversityName",
          "type": "string"
        },
        {
          "name": "DegreeJSON",
          "type": "string"
        },
        {
          "name": "DegreeHash",
          "type": "bytes32"
        },
        {
          "name": "InsertedBy",
          "type": "address"
        }
      ],
      "payable": false,
      "stateMutability": "view",
      "type": "function",
      "signature": "0x4c4a71aa"
    },
    {
      "constant": true,
      "inputs": [],
      "name": "SignUpStateMessage",
      "outputs": [
        {
          "name": "",
          "type": "string"
        }
      ],
      "payable": false,
      "stateMutability": "view",
      "type": "function",
      "signature": "0x6b622683"
    },
    {
      "constant": true,
      "inputs": [
        {
          "name": "",
          "type": "uint256"
        }
      ],
      "name": "StakeholderList",
      "outputs": [
        {
          "name": "UniqueId",
          "type": "uint256"
        },
        {
          "name": "Username",
          "type": "string"
        },
        {
          "name": "UserPass",
          "type": "string"
        },
        {
          "name": "FullName",
          "type": "string"
        },
        {
          "name": "UserAddress",
          "type": "address"
        },
        {
          "name": "StakeholderHash",
          "type": "bytes32"
        },
        {
          "name": "AccountType",
          "type": "string"
        }
      ],
      "payable": false,
      "stateMutability": "view",
      "type": "function",
      "signature": "0xb4350a62"
    },
    {
      "constant": true,
      "inputs": [],
      "name": "NextStakeholderId",
      "outputs": [
        {
          "name": "",
          "type": "uint256"
        }
      ],
      "payable": false,
      "stateMutability": "view",
      "type": "function",
      "signature": "0xd761b4a9"
    },
    {
      "constant": false,
      "inputs": [
        {
          "name": "_nationIdCard",
          "type": "string"
        },
        {
          "name": "_studentName",
          "type": "string"
        },
        {
          "name": "_studentId",
          "type": "string"
        },
        {
          "name": "_degreeTitle",
          "type": "string"
        },
        {
          "name": "_universityName",
          "type": "string"
        },
        {
          "name": "_degreeJSON",
          "type": "string"
        }
      ],
      "name": "CreateDegree",
      "outputs": [
        {
          "name": "",
          "type": "uint256"
        }
      ],
      "payable": false,
      "stateMutability": "nonpayable",
      "type": "function",
      "signature": "0x2500c04c"
    },
    {
      "constant": true,
      "inputs": [
        {
          "name": "_degreeId",
          "type": "uint256"
        }
      ],
      "name": "GetDegreeInfo",
      "outputs": [
        {
          "name": "",
          "type": "uint256"
        },
        {
          "name": "",
          "type": "string"
        },
        {
          "name": "",
          "type": "string"
        },
        {
          "name": "",
          "type": "string"
        },
        {
          "name": "",
          "type": "string"
        },
        {
          "name": "",
          "type": "string"
        },
        {
          "name": "",
          "type": "bytes32"
        }
      ],
      "payable": false,
      "stateMutability": "view",
      "type": "function",
      "signature": "0x79986a9b"
    },
    {
      "constant": true,
      "inputs": [
        {
          "name": "_nationIdCard",
          "type": "string"
        },
        {
          "name": "_degreeTitle",
          "type": "string"
        },
        {
          "name": "_university",
          "type": "string"
        }
      ],
      "name": "GetDegreeInfo",
      "outputs": [
        {
          "name": "",
          "type": "bytes32"
        },
        {
          "name": "",
          "type": "uint256"
        }
      ],
      "payable": false,
      "stateMutability": "view",
      "type": "function",
      "signature": "0xfe9a51ee"
    },
    {
      "constant": true,
      "inputs": [
        {
          "name": "_degreeId",
          "type": "uint256"
        }
      ],
      "name": "VerifyDegree",
      "outputs": [
        {
          "name": "",
          "type": "bytes32"
        },
        {
          "name": "",
          "type": "uint256"
        }
      ],
      "payable": false,
      "stateMutability": "view",
      "type": "function",
      "signature": "0xa6a75c24"
    },
    {
      "constant": false,
      "inputs": [
        {
          "name": "_usermame",
          "type": "string"
        },
        {
          "name": "_password",
          "type": "string"
        },
        {
          "name": "_fullName",
          "type": "string"
        },
        {
          "name": "_accountType",
          "type": "string"
        }
      ],
      "name": "SignupStakeholder",
      "outputs": [
        {
          "name": "",
          "type": "uint256"
        }
      ],
      "payable": false,
      "stateMutability": "nonpayable",
      "type": "function",
      "signature": "0x4ea6e4c2"
    },
    {
      "constant": true,
      "inputs": [
        {
          "name": "_usermame",
          "type": "string"
        },
        {
          "name": "_password",
          "type": "string"
        }
      ],
      "name": "SignInStakeholder",
      "outputs": [
        {
          "name": "",
          "type": "string"
        }
      ],
      "payable": false,
      "stateMutability": "view",
      "type": "function",
      "signature": "0x63aeb9a5"
    },
    {
      "constant": true,
      "inputs": [
        {
          "name": "_degreeName",
          "type": "string"
        },
        {
          "name": "_universityName",
          "type": "string"
        },
        {
          "name": "_degreeJSON",
          "type": "string"
        }
      ],
      "name": "GetEthDegreeHash",
      "outputs": [
        {
          "name": "",
          "type": "bytes32"
        }
      ],
      "payable": false,
      "stateMutability": "pure",
      "type": "function",
      "signature": "0x882c6d06"
    },
    {
      "constant": true,
      "inputs": [
        {
          "name": "_degreeName",
          "type": "string"
        },
        {
          "name": "_universityName",
          "type": "string"
        },
        {
          "name": "_degreeJSON",
          "type": "string"
        }
      ],
      "name": "GetMessageHash",
      "outputs": [
        {
          "name": "",
          "type": "bytes32"
        }
      ],
      "payable": false,
      "stateMutability": "pure",
      "type": "function",
      "signature": "0x6bb98e66"
    },
    {
      "constant": true,
      "inputs": [
        {
          "name": "_messageHash",
          "type": "bytes32"
        }
      ],
      "name": "GetEthMessageSignedHash",
      "outputs": [
        {
          "name": "",
          "type": "bytes32"
        }
      ],
      "payable": false,
      "stateMutability": "pure",
      "type": "function",
      "signature": "0xebd58427"
    }
  ],
  "bytecode": "0x608060405234801561001057600080fd5b50612a8f806100206000396000f3fe6080604052600436106100cf5763ffffffff7c01000000000000000000000000000000000000000000000000000000006000350416630de425d081146100d45780632500c04c146100fb5780634c4a71aa146104515780634ea6e4c21461071b57806363aeb9a5146109635780636b62268314610b125780636bb98e6614610b2757806379986a9b14610ce8578063882c6d0614610f30578063a6a75c24146110f1578063b4350a6214611134578063d761b4a91461132f578063ebd5842714611344578063fe9a51ee1461136e575b600080fd5b3480156100e057600080fd5b506100e961152f565b60408051918252519081900360200190f35b34801561010757600080fd5b506100e9600480360360c081101561011e57600080fd5b81019060208101813564010000000081111561013957600080fd5b82018360208201111561014b57600080fd5b8035906020019184600183028401116401000000008311171561016d57600080fd5b91908080601f01602080910402602001604051908101604052809392919081815260200183838082843760009201919091525092959493602081019350359150506401000000008111156101c057600080fd5b8201836020820111156101d257600080fd5b803590602001918460018302840111640100000000831117156101f457600080fd5b91908080601f016020809104026020016040519081016040528093929190818152602001838380828437600092019190915250929594936020810193503591505064010000000081111561024757600080fd5b82018360208201111561025957600080fd5b8035906020019184600183028401116401000000008311171561027b57600080fd5b91908080601f01602080910402602001604051908101604052809392919081815260200183838082843760009201919091525092959493602081019350359150506401000000008111156102ce57600080fd5b8201836020820111156102e057600080fd5b8035906020019184600183028401116401000000008311171561030257600080fd5b91908080601f016020809104026020016040519081016040528093929190818152602001838380828437600092019190915250929594936020810193503591505064010000000081111561035557600080fd5b82018360208201111561036757600080fd5b8035906020019184600183028401116401000000008311171561038957600080fd5b91908080601f01602080910402602001604051908101604052809392919081815260200183838082843760009201919091525092959493602081019350359150506401000000008111156103dc57600080fd5b8201836020820111156103ee57600080fd5b8035906020019184600183028401116401000000008311171561041057600080fd5b91908080601f016020809104026020016040519081016040528093929190818152602001838380828437600092019190915250929550611535945050505050565b34801561045d57600080fd5b5061047b6004803603602081101561047457600080fd5b503561169b565b604051808a815260200180602001806020018060200180602001806020018060200189815260200188600160a060020a0316600160a060020a0316815260200187810387528f818151815260200191508051906020019080838360005b838110156104f05781810151838201526020016104d8565b50505050905090810190601f16801561051d5780820380516001836020036101000a031916815260200191505b5087810386528e818151815260200191508051906020019080838360005b8381101561055357818101518382015260200161053b565b50505050905090810190601f1680156105805780820380516001836020036101000a031916815260200191505b5087810385528d5181528d516020918201918f019080838360005b838110156105b357818101518382015260200161059b565b50505050905090810190601f1680156105e05780820380516001836020036101000a031916815260200191505b5087810384528c5181528c516020918201918e019080838360005b838110156106135781810151838201526020016105fb565b50505050905090810190601f1680156106405780820380516001836020036101000a031916815260200191505b5087810383528b5181528b516020918201918d019080838360005b8381101561067357818101518382015260200161065b565b50505050905090810190601f1680156106a05780820380516001836020036101000a031916815260200191505b5087810382528a5181528a516020918201918c019080838360005b838110156106d35781810151838201526020016106bb565b50505050905090810190601f1680156107005780820380516001836020036101000a031916815260200191505b509f5050505050505050505050505050505060405180910390f35b34801561072757600080fd5b506100e96004803603608081101561073e57600080fd5b81019060208101813564010000000081111561075957600080fd5b82018360208201111561076b57600080fd5b8035906020019184600183028401116401000000008311171561078d57600080fd5b91908080601f01602080910402602001604051908101604052809392919081815260200183838082843760009201919091525092959493602081019350359150506401000000008111156107e057600080fd5b8201836020820111156107f257600080fd5b8035906020019184600183028401116401000000008311171561081457600080fd5b91908080601f016020809104026020016040519081016040528093929190818152602001838380828437600092019190915250929594936020810193503591505064010000000081111561086757600080fd5b82018360208201111561087957600080fd5b8035906020019184600183028401116401000000008311171561089b57600080fd5b91908080601f01602080910402602001604051908101604052809392919081815260200183838082843760009201919091525092959493602081019350359150506401000000008111156108ee57600080fd5b82018360208201111561090057600080fd5b8035906020019184600183028401116401000000008311171561092257600080fd5b91908080601f016020809104026020016040519081016040528093929190818152602001838380828437600092019190915250929550611a29945050505050565b34801561096f57600080fd5b50610a9d6004803603604081101561098657600080fd5b8101906020810181356401000000008111156109a157600080fd5b8201836020820111156109b357600080fd5b803590602001918460018302840111640100000000831117156109d557600080fd5b91908080601f0160208091040260200160405190810160405280939291908181526020018383808284376000920191909152509295949360208101935035915050640100000000811115610a2857600080fd5b820183602082011115610a3a57600080fd5b80359060200191846001830284011164010000000083111715610a5c57600080fd5b91908080601f016020809104026020016040519081016040528093929190818152602001838380828437600092019190915250929550611c58945050505050565b6040805160208082528351818301528351919283929083019185019080838360005b83811015610ad7578181015183820152602001610abf565b50505050905090810190601f168015610b045780820380516001836020036101000a031916815260200191505b509250505060405180910390f35b348015610b1e57600080fd5b50610a9d611ec5565b348015610b3357600080fd5b506100e960048036036060811015610b4a57600080fd5b810190602081018135640100000000811115610b6557600080fd5b820183602082011115610b7757600080fd5b80359060200191846001830284011164010000000083111715610b9957600080fd5b91908080601f0160208091040260200160405190810160405280939291908181526020018383808284376000920191909152509295949360208101935035915050640100000000811115610bec57600080fd5b820183602082011115610bfe57600080fd5b80359060200191846001830284011164010000000083111715610c2057600080fd5b91908080601f0160208091040260200160405190810160405280939291908181526020018383808284376000920191909152509295949360208101935035915050640100000000811115610c7357600080fd5b820183602082011115610c8557600080fd5b80359060200191846001830284011164010000000083111715610ca757600080fd5b91908080601f016020809104026020016040519081016040528093929190818152602001838380828437600092019190915250929550611f53945050505050565b348015610cf457600080fd5b50610d1260048036036020811015610d0b57600080fd5b5035612060565b60405180888152602001806020018060200180602001806020018060200187815260200186810386528c818151815260200191508051906020019080838360005b83811015610d6b578181015183820152602001610d53565b50505050905090810190601f168015610d985780820380516001836020036101000a031916815260200191505b5086810385528b5181528b516020918201918d019080838360005b83811015610dcb578181015183820152602001610db3565b50505050905090810190601f168015610df85780820380516001836020036101000a031916815260200191505b5086810384528a5181528a516020918201918c019080838360005b83811015610e2b578181015183820152602001610e13565b50505050905090810190601f168015610e585780820380516001836020036101000a031916815260200191505b5086810383528951815289516020918201918b019080838360005b83811015610e8b578181015183820152602001610e73565b50505050905090810190601f168015610eb85780820380516001836020036101000a031916815260200191505b5086810382528851815288516020918201918a019080838360005b83811015610eeb578181015183820152602001610ed3565b50505050905090810190601f168015610f185780820380516001836020036101000a031916815260200191505b509c5050505050505050505050505060405180910390f35b348015610f3c57600080fd5b506100e960048036036060811015610f5357600080fd5b810190602081018135640100000000811115610f6e57600080fd5b820183602082011115610f8057600080fd5b80359060200191846001830284011164010000000083111715610fa257600080fd5b91908080601f0160208091040260200160405190810160405280939291908181526020018383808284376000920191909152509295949360208101935035915050640100000000811115610ff557600080fd5b82018360208201111561100757600080fd5b8035906020019184600183028401116401000000008311171561102957600080fd5b91908080601f016020809104026020016040519081016040528093929190818152602001838380828437600092019190915250929594936020810193503591505064010000000081111561107c57600080fd5b82018360208201111561108e57600080fd5b803590602001918460018302840111640100000000831117156110b057600080fd5b91908080601f016020809104026020016040519081016040528093929190818152602001838380828437600092019190915250929550612375945050505050565b3480156110fd57600080fd5b5061111b6004803603602081101561111457600080fd5b503561239a565b6040805192835260208301919091528051918290030190f35b34801561114057600080fd5b5061115e6004803603602081101561115757600080fd5b50356123b3565b6040518088815260200180602001806020018060200187600160a060020a0316600160a060020a031681526020018681526020018060200185810385528b818151815260200191508051906020019080838360005b838110156111cb5781810151838201526020016111b3565b50505050905090810190601f1680156111f85780820380516001836020036101000a031916815260200191505b5085810384528a5181528a516020918201918c019080838360005b8381101561122b578181015183820152602001611213565b50505050905090810190601f1680156112585780820380516001836020036101000a031916815260200191505b5085810383528951815289516020918201918b019080838360005b8381101561128b578181015183820152602001611273565b50505050905090810190601f1680156112b85780820380516001836020036101000a031916815260200191505b50858103825286518152865160209182019188019080838360005b838110156112eb5781810151838201526020016112d3565b50505050905090810190601f1680156113185780820380516001836020036101000a031916815260200191505b509b50505050505050505050505060405180910390f35b34801561133b57600080fd5b506100e9612622565b34801561135057600080fd5b506100e96004803603602081101561136757600080fd5b5035612628565b34801561137a57600080fd5b5061111b6004803603606081101561139157600080fd5b8101906020810181356401000000008111156113ac57600080fd5b8201836020820111156113be57600080fd5b803590602001918460018302840111640100000000831117156113e057600080fd5b91908080601f016020809104026020016040519081016040528093929190818152602001838380828437600092019190915250929594936020810193503591505064010000000081111561143357600080fd5b82018360208201111561144557600080fd5b8035906020019184600183028401116401000000008311171561146757600080fd5b91908080601f01602080910402602001604051908101604052809392919081815260200183838082843760009201919091525092959493602081019350359150506401000000008111156114ba57600080fd5b8201836020820111156114cc57600080fd5b803590602001918460018302840111640100000000831117156114ee57600080fd5b91908080601f016020809104026020016040519081016040528093929190818152602001838380828437600092019190915250929550612679945050505050565b60005481565b600080611543858585612375565b60408051610120810182526000805480835260208084018e81528486018e9052606085018d9052608085018c905260a085018b905260c085018a905260e08501879052336101008601529183526001808252949092208351815590518051959650929490936115b7939085019201906129c8565b50604082015180516115d39160028401916020909101906129c8565b50606082015180516115ef9160038401916020909101906129c8565b506080820151805161160b9160048401916020909101906129c8565b5060a082015180516116279160058401916020909101906129c8565b5060c082015180516116439160068401916020909101906129c8565b5060e08201516007820155610100909101516008909101805473ffffffffffffffffffffffffffffffffffffffff1916600160a060020a03909216919091179055505060008054600181019091559695505050505050565b600160208181526000928352604092839020805481840180548651600296821615610100026000190190911695909504601f810185900485028601850190965285855290949193929091908301828280156117375780601f1061170c57610100808354040283529160200191611737565b820191906000526020600020905b81548152906001019060200180831161171a57829003601f168201915b50505060028085018054604080516020601f60001961010060018716150201909416959095049283018590048502810185019091528181529596959450909250908301828280156117c95780601f1061179e576101008083540402835291602001916117c9565b820191906000526020600020905b8154815290600101906020018083116117ac57829003601f168201915b5050505060038301805460408051602060026001851615610100026000190190941693909304601f81018490048402820184019092528181529495949350908301828280156118595780601f1061182e57610100808354040283529160200191611859565b820191906000526020600020905b81548152906001019060200180831161183c57829003601f168201915b5050505060048301805460408051602060026001851615610100026000190190941693909304601f81018490048402820184019092528181529495949350908301828280156118e95780601f106118be576101008083540402835291602001916118e9565b820191906000526020600020905b8154815290600101906020018083116118cc57829003601f168201915b5050505060058301805460408051602060026001851615610100026000190190941693909304601f81018490048402820184019092528181529495949350908301828280156119795780601f1061194e57610100808354040283529160200191611979565b820191906000526020600020905b81548152906001019060200180831161195c57829003601f168201915b5050505060068301805460408051602060026001851615610100026000190190941693909304601f8101849004840282018401909252818152949594935090830182828015611a095780601f106119de57610100808354040283529160200191611a09565b820191906000526020600020905b8154815290600101906020018083116119ec57829003601f168201915b505050506007830154600890930154919291600160a060020a0316905089565b6000337399bc5c25cd1750e386b9440c77b6e76b2b77c91a80821415611bdc576000611a56888889612375565b6040805160e08101825260025480825260208083018d81528385018d9052606084018c9052600160a060020a038916608085015260a0840186905260c084018b90526000928352600482529390912082518155925180519495509193611ac292600185019201906129c8565b5060408201518051611ade9160028401916020909101906129c8565b5060608201518051611afa9160038401916020909101906129c8565b50608082015160048201805473ffffffffffffffffffffffffffffffffffffffff1916600160a060020a0390921691909117905560a0820151600582015560c08201518051611b539160068401916020909101906129c8565b5050600280546001019055506040805160608101825260278082527f5375636365737366756c6c79205369676e75702c205065726d697373696f6e20602083019081527f4772616e746564000000000000000000000000000000000000000000000000009290930191909152611bcb916003916129c8565b506001600254039350505050611c50565b6040805160608101825260288082527f4e6f7420416c6c6f77656420746f205369676e75702c205065726d697373696f602083019081527f6e2044656e6965640000000000000000000000000000000000000000000000009290930191909152611c48916003916129c8565b506000925050505b949350505050565b606060005b600254811015611ead57836040516020018082805190602001908083835b60208310611c9a5780518252601f199092019160209182019101611c7b565b6001836020036101000a03801982511681845116808217855250505050505090500191505060405160208183030381529060405280519060200120600460008381526020019081526020016000206001016040516020018082805460018160011615610100020316600290048015611d495780601f10611d27576101008083540402835291820191611d49565b820191906000526020600020905b815481529060010190602001808311611d35575b505091505060405160208183030381529060405280519060200120148015611e6b5750826040516020018082805190602001908083835b60208310611d9f5780518252601f199092019160209182019101611d80565b6001836020036101000a03801982511681845116808217855250505050505090500191505060405160208183030381529060405280519060200120600460008381526020019081526020016000206002016040516020018082805460018160011615610100020316600290048015611e4e5780601f10611e2c576101008083540402835291820191611e4e565b820191906000526020600020905b815481529060010190602001808311611e3a575b505091505060405160208183030381529060405280519060200120145b15611ea5576000611e7d858586612375565b600083815260046020526040902060050154909150811415611ea3578492505050611ebf565b505b600101611c5d565b50506040805160208101909152600081525b92915050565b6003805460408051602060026001851615610100026000190190941693909304601f81018490048402820184019092528181529291830182828015611f4b5780601f10611f2057610100808354040283529160200191611f4b565b820191906000526020600020905b815481529060010190602001808311611f2e57829003601f168201915b505050505081565b60008383836040516020018084805190602001908083835b60208310611f8a5780518252601f199092019160209182019101611f6b565b51815160209384036101000a600019018019909216911617905286519190930192860191508083835b60208310611fd25780518252601f199092019160209182019101611fb3565b51815160209384036101000a600019018019909216911617905285519190930192850191508083835b6020831061201a5780518252601f199092019160209182019101611ffb565b6001836020036101000a03801982511681845116808217855250505050505090500193505050506040516020818303038152906040528051906020012090509392505050565b600081815260016020818152604080842080546007820154828601805485516002988216156101000260001901909116889004601f810188900488028201880190965285815260609788978897889788978d979096959482019460038301946004840194600590940193889183018282801561211d5780601f106120f25761010080835404028352916020019161211d565b820191906000526020600020905b81548152906001019060200180831161210057829003601f168201915b5050885460408051602060026001851615610100026000190190941693909304601f8101849004840282018401909252818152959b508a9450925084019050828280156121ab5780601f10612180576101008083540402835291602001916121ab565b820191906000526020600020905b81548152906001019060200180831161218e57829003601f168201915b5050875460408051602060026001851615610100026000190190941693909304601f8101849004840282018401909252818152959a50899450925084019050828280156122395780601f1061220e57610100808354040283529160200191612239565b820191906000526020600020905b81548152906001019060200180831161221c57829003601f168201915b5050865460408051602060026001851615610100026000190190941693909304601f8101849004840282018401909252818152959950889450925084019050828280156122c75780601f1061229c576101008083540402835291602001916122c7565b820191906000526020600020905b8154815290600101906020018083116122aa57829003601f168201915b5050855460408051602060026001851615610100026000190190941693909304601f8101849004840282018401909252818152959850879450925084019050828280156123555780601f1061232a57610100808354040283529160200191612355565b820191906000526020600020905b81548152906001019060200180831161233857829003601f168201915b505050505091509650965096509650965096509650919395979092949650565b600080612383858585611f53565b9050600061239082612628565b9695505050505050565b6000908152600160205260409020600781015490549091565b6004602090815260009182526040918290208054600180830180548651600293821615610100026000190190911692909204601f8101869004860283018601909652858252919492939092908301828280156124505780601f1061242557610100808354040283529160200191612450565b820191906000526020600020905b81548152906001019060200180831161243357829003601f168201915b50505060028085018054604080516020601f60001961010060018716150201909416959095049283018590048502810185019091528181529596959450909250908301828280156124e25780601f106124b7576101008083540402835291602001916124e2565b820191906000526020600020905b8154815290600101906020018083116124c557829003601f168201915b5050505060038301805460408051602060026001851615610100026000190190941693909304601f81018490048402820184019092528181529495949350908301828280156125725780601f1061254757610100808354040283529160200191612572565b820191906000526020600020905b81548152906001019060200180831161255557829003601f168201915b505050506004830154600584015460068501805460408051602060026101006001861615026000190190941693909304601f81018490048402820184019092528181529697600160a060020a0390951696939550908301828280156126185780601f106125ed57610100808354040283529160200191612618565b820191906000526020600020905b8154815290600101906020018083116125fb57829003601f168201915b5050505050905087565b60025481565b604080517f19457468657265756d205369676e6564204d6573736167653a0a333200000000602080830191909152603c8083019490945282518083039094018452605c909101909152815191012090565b600080805b6002548110156129be57856040516020018082805190602001908083835b602083106126bb5780518252601f19909201916020918201910161269c565b6001836020036101000a0380198251168184511680821785525050505050509050019150506040516020818303038152906040528051906020012060016000838152602001908152602001600020600101604051602001808280546001816001161561010002031660029004801561276a5780601f1061274857610100808354040283529182019161276a565b820191906000526020600020905b815481529060010190602001808311612756575b50509150506040516020818303038152906040528051906020012014801561288c5750846040516020018082805190602001908083835b602083106127c05780518252601f1990920191602091820191016127a1565b6001836020036101000a0380198251168184511680821785525050505050509050019150506040516020818303038152906040528051906020012060016000838152602001908152602001600020600401604051602001808280546001816001161561010002031660029004801561286f5780601f1061284d57610100808354040283529182019161286f565b820191906000526020600020905b81548152906001019060200180831161285b575b505091505060405160208183030381529060405280519060200120145b80156129925750836040516020018082805190602001908083835b602083106128c65780518252601f1990920191602091820191016128a7565b6001836020036101000a038019825116818451168082178552505050505050905001915050604051602081830303815290604052805190602001206001600083815260200190815260200160002060050160405160200180828054600181600116156101000203166002900480156129755780601f10612953576101008083540402835291820191612975565b820191906000526020600020905b815481529060010190602001808311612961575b505091505060405160208183030381529060405280519060200120145b156129b65760009081526001602052604090206007810154905490925090506129c0565b60010161267e565b505b935093915050565b828054600181600116156101000203166002900490600052602060002090601f016020900481019282601f10612a0957805160ff1916838001178555612a36565b82800160010185558215612a36579182015b82811115612a36578251825591602001919060010190612a1b565b50612a42929150612a46565b5090565b612a6091905b80821115612a425760008155600101612a4c565b9056fea165627a7a72305820df826b75227fe85999fe02f8261fafa278e97b40ce86c6e67c0242f3a75d5b9e0029",
  "source": "pragma solidity ^0.5.0;\r\n\r\ncontract DegreeVerification\r\n{\r\n    uint public NextDegreeId;\r\n    \r\n    struct DegreeData\r\n    {\r\n        uint SerialNumber;\r\n        string NationalIdentityCard;\r\n        string StudentName;\r\n        string StudentId;\r\n        string DegreeTitle;\r\n        string UniversityName;\r\n        string DegreeJSON;\r\n        bytes32 DegreeHash;\r\n        address InsertedBy;\r\n        // Status \r\n    }\r\n    \r\n    mapping(uint => DegreeData) public DegreeDataList;\r\n    \r\n    // Function Used to Insert data to blockchain\r\n    function CreateDegree(string memory _nationIdCard, string memory _studentName, string memory _studentId, string memory _degreeTitle, string memory _universityName, string memory _degreeJSON) public returns (uint)\r\n    {\r\n        bytes32 _degreeHash = GetEthDegreeHash(_degreeTitle, _universityName, _degreeJSON);\r\n        DegreeDataList[NextDegreeId] = DegreeData(NextDegreeId, _nationIdCard, _studentName, _studentId, _degreeTitle, _universityName, _degreeJSON, _degreeHash, msg.sender);\r\n\r\n        NextDegreeId++;\r\n        return NextDegreeId - 1;\r\n    }\r\n\r\n    // Function to Generate QR-Code\r\n    function GetDegreeInfo(string memory _nationIdCard, string memory _degreeTitle, string memory _university) view public returns (bytes32, uint)\r\n    {\r\n        for(uint i= 0; i < NextStakeholderId; i++)\r\n        {\r\n            if(keccak256(abi.encodePacked((DegreeDataList[i].NationalIdentityCard))) == keccak256(abi.encodePacked((_nationIdCard))) \r\n            && keccak256(abi.encodePacked((DegreeDataList[i].DegreeTitle))) == keccak256(abi.encodePacked((_degreeTitle))) \r\n            && keccak256(abi.encodePacked((DegreeDataList[i].UniversityName))) == keccak256(abi.encodePacked((_university))))\r\n            {\r\n               return(DegreeDataList[i].DegreeHash, DegreeDataList[i].SerialNumber);\r\n            }\r\n        }\r\n    }\r\n\r\n    // Function to Generate QR-Code\r\n    function GetDegreeInfo(uint _degreeId) view public returns(uint, string memory, string memory, string memory, string memory, string memory, bytes32)\r\n    {\r\n        return(\r\n            DegreeDataList[_degreeId].SerialNumber,\r\n            DegreeDataList[_degreeId].NationalIdentityCard,\r\n            DegreeDataList[_degreeId].StudentName,\r\n            DegreeDataList[_degreeId].StudentId,\r\n            DegreeDataList[_degreeId].DegreeTitle, \r\n            DegreeDataList[_degreeId].UniversityName,\r\n            DegreeDataList[_degreeId].DegreeHash\r\n            ); \r\n    }\r\n\r\n    // Function Used to Verify Degree \r\n    function VerifyDegree(uint _degreeId) view public returns (bytes32, uint)\r\n    {\r\n        return(DegreeDataList[_degreeId].DegreeHash, DegreeDataList[_degreeId].SerialNumber);\r\n    }\r\n\r\n    /*\r\n    // User Registration and Login\r\n    */\r\n    uint public NextStakeholderId;\r\n    string public SignUpStateMessage;\r\n    \r\n    struct Stakeholder\r\n    {\r\n        uint UniqueId;\r\n        string Username;\r\n        string UserPass;\r\n        string FullName;\r\n        address UserAddress;\r\n        bytes32 StakeholderHash;\r\n        string AccountType;\r\n    }\r\n    \r\n    mapping(uint => Stakeholder) public StakeholderList;\r\n\r\n    function SignupStakeholder(string memory _usermame, string memory _password, string memory _fullName, string memory _accountType) public returns (uint)\r\n    {\r\n        address sender = msg.sender;\r\n        address adminAddress = 0x99BC5c25Cd1750E386B9440C77b6e76b2b77C91A;\r\n\r\n        if(sender == adminAddress)\r\n        {\r\n            bytes32 _stakeHolderHash = GetEthDegreeHash(_usermame, _password, _password);\r\n\r\n            StakeholderList[NextStakeholderId] = Stakeholder(NextStakeholderId, _usermame, _password, _fullName, sender, _stakeHolderHash, _accountType);\r\n            NextStakeholderId++;\r\n            SignUpStateMessage = \"Successfully Signup, Permission Granted\";\r\n            return NextStakeholderId - 1;\r\n        }\r\n        SignUpStateMessage = \"Not Allowed to Signup, Permission Denied\";\r\n        return 0;\r\n    }\r\n    \r\n    // Function Used to Sign In dApp\r\n    function SignInStakeholder(string memory _usermame, string memory _password) view public returns(string memory)\r\n    {\r\n        for(uint i= 0; i < NextStakeholderId; i++)\r\n        {\r\n            if(keccak256(abi.encodePacked((StakeholderList[i].Username))) == keccak256(abi.encodePacked((_usermame))) &&  keccak256(abi.encodePacked((StakeholderList[i].UserPass))) == keccak256(abi.encodePacked((_password))))\r\n            {\r\n                bytes32 _stakeHolderHash = GetEthDegreeHash(_usermame, _password, _password);\r\n\r\n                if(StakeholderList[i].StakeholderHash == _stakeHolderHash)\r\n                {\r\n                   return _usermame;\r\n                }\r\n            }\r\n        }\r\n        return \"\";\r\n    }\r\n\r\n    /*    \r\n    // Create and Verifying Hash\r\n    */    \r\n    \r\n    function GetEthDegreeHash(string memory _degreeName, string memory _universityName, string memory _degreeJSON) public pure returns (bytes32)\r\n    {\r\n        bytes32 messageHash = GetMessageHash(_degreeName, _universityName, _degreeJSON);\r\n        bytes32 ethSignMessageHash = GetEthMessageSignedHash(messageHash);\r\n        \r\n        return ethSignMessageHash;\r\n    }\r\n    \r\n    function GetMessageHash(string memory _degreeName, string memory _universityName, string memory _degreeJSON) public pure returns (bytes32)\r\n    {\r\n        // have to add uniqueId in parameter to distinguish hash\r\n        return keccak256(abi.encodePacked(_degreeName, _universityName, _degreeJSON));\r\n    }\r\n    \r\n    function GetEthMessageSignedHash(bytes32 _messageHash) public pure returns (bytes32)\r\n    {\r\n        // prefix Ethereum signing message (32 bit) \r\n        // followed by length of message it required for ecrecover function\r\n        return keccak256(abi.encodePacked(\"\\x19Ethereum Signed Message:\\n32\", _messageHash));\r\n    }\r\n}",
  "sourcePath": "D:/Personal/Masters Related/Block chain/Project/eth-DegreeVerification/contracts/DegreeVerification.sol",
  "compiler": {
    "name": "solc",
    "version": "0.5.0+commit.1d4f565a.Emscripten.clang"
  },
  "schemaVersion": "3.0.1",
  "updatedAt": "2021-01-26T19:28:37.234Z",
  "devdoc": {
    "methods": {}
  },
  "userdoc": {
    "methods": {}
  }
}