{
  "contractName": "DegreeVerification",
  "abi": [
    {
      "constant": true,
      "inputs": [],
      "name": "NextDegreeId",
      "outputs": [
        {
          "name": "",
          "type": "uint256"
        }
      ],
      "payable": false,
      "stateMutability": "view",
      "type": "function",
      "signature": "0x0de425d0"
    },
    {
      "constant": true,
      "inputs": [
        {
          "name": "",
          "type": "uint256"
        }
      ],
      "name": "DegreeDataList",
      "outputs": [
        {
          "name": "UniqueId",
          "type": "uint256"
        },
        {
          "name": "DegreeName",
          "type": "string"
        },
        {
          "name": "UniversityName",
          "type": "string"
        },
        {
          "name": "DegreeJSON",
          "type": "string"
        },
        {
          "name": "DegreeHash",
          "type": "bytes32"
        }
      ],
      "payable": false,
      "stateMutability": "view",
      "type": "function",
      "signature": "0x4c4a71aa"
    },
    {
      "constant": true,
      "inputs": [],
      "name": "SignUpStateMessage",
      "outputs": [
        {
          "name": "",
          "type": "string"
        }
      ],
      "payable": false,
      "stateMutability": "view",
      "type": "function",
      "signature": "0x6b622683"
    },
    {
      "constant": true,
      "inputs": [
        {
          "name": "",
          "type": "uint256"
        }
      ],
      "name": "StakeholderList",
      "outputs": [
        {
          "name": "UniqueId",
          "type": "uint256"
        },
        {
          "name": "Username",
          "type": "string"
        },
        {
          "name": "UserPass",
          "type": "string"
        },
        {
          "name": "FullName",
          "type": "string"
        },
        {
          "name": "UserAddress",
          "type": "address"
        },
        {
          "name": "StakeholderHash",
          "type": "bytes32"
        },
        {
          "name": "AccountType",
          "type": "string"
        }
      ],
      "payable": false,
      "stateMutability": "view",
      "type": "function",
      "signature": "0xb4350a62"
    },
    {
      "constant": true,
      "inputs": [],
      "name": "NextStakeholderId",
      "outputs": [
        {
          "name": "",
          "type": "uint256"
        }
      ],
      "payable": false,
      "stateMutability": "view",
      "type": "function",
      "signature": "0xd761b4a9"
    },
    {
      "constant": false,
      "inputs": [
        {
          "name": "_degreeName",
          "type": "string"
        },
        {
          "name": "_universityName",
          "type": "string"
        },
        {
          "name": "_degreeJSON",
          "type": "string"
        }
      ],
      "name": "CreateDegree",
      "outputs": [
        {
          "name": "",
          "type": "uint256"
        }
      ],
      "payable": false,
      "stateMutability": "nonpayable",
      "type": "function",
      "signature": "0x21575ce0"
    },
    {
      "constant": true,
      "inputs": [
        {
          "name": "uniqueId",
          "type": "uint256"
        }
      ],
      "name": "VerifyDegree",
      "outputs": [
        {
          "name": "",
          "type": "string"
        },
        {
          "name": "",
          "type": "string"
        }
      ],
      "payable": false,
      "stateMutability": "view",
      "type": "function",
      "signature": "0xa6a75c24"
    },
    {
      "constant": false,
      "inputs": [
        {
          "name": "_usermame",
          "type": "string"
        },
        {
          "name": "_password",
          "type": "string"
        },
        {
          "name": "_fullName",
          "type": "string"
        },
        {
          "name": "_accountType",
          "type": "string"
        }
      ],
      "name": "SignupStakeholder",
      "outputs": [
        {
          "name": "",
          "type": "uint256"
        }
      ],
      "payable": false,
      "stateMutability": "nonpayable",
      "type": "function",
      "signature": "0x4ea6e4c2"
    },
    {
      "constant": true,
      "inputs": [
        {
          "name": "_usermame",
          "type": "string"
        },
        {
          "name": "_password",
          "type": "string"
        }
      ],
      "name": "SignInStakeholder",
      "outputs": [
        {
          "name": "",
          "type": "string"
        }
      ],
      "payable": false,
      "stateMutability": "view",
      "type": "function",
      "signature": "0x63aeb9a5"
    },
    {
      "constant": true,
      "inputs": [
        {
          "name": "_degreeName",
          "type": "string"
        },
        {
          "name": "_universityName",
          "type": "string"
        },
        {
          "name": "_degreeJSON",
          "type": "string"
        }
      ],
      "name": "GetEthDegreeHash",
      "outputs": [
        {
          "name": "",
          "type": "bytes32"
        }
      ],
      "payable": false,
      "stateMutability": "pure",
      "type": "function",
      "signature": "0x882c6d06"
    },
    {
      "constant": true,
      "inputs": [
        {
          "name": "_degreeName",
          "type": "string"
        },
        {
          "name": "_universityName",
          "type": "string"
        },
        {
          "name": "_degreeJSON",
          "type": "string"
        }
      ],
      "name": "GetMessageHash",
      "outputs": [
        {
          "name": "",
          "type": "bytes32"
        }
      ],
      "payable": false,
      "stateMutability": "pure",
      "type": "function",
      "signature": "0x6bb98e66"
    },
    {
      "constant": true,
      "inputs": [
        {
          "name": "_messageHash",
          "type": "bytes32"
        }
      ],
      "name": "GetEthMessageSignedHash",
      "outputs": [
        {
          "name": "",
          "type": "bytes32"
        }
      ],
      "payable": false,
      "stateMutability": "pure",
      "type": "function",
      "signature": "0xebd58427"
    }
  ],
  "bytecode": "0x608060405234801561001057600080fd5b50611cef806100206000396000f3fe6080604052600436106100b95763ffffffff7c01000000000000000000000000000000000000000000000000000000006000350416630de425d081146100be57806321575ce0146100e55780634c4a71aa146102a65780634ea6e4c21461042257806363aeb9a51461066a5780636b622683146108195780636bb98e661461082e578063882c6d06146109ef578063a6a75c2414610bb0578063b4350a6214610cb8578063d761b4a914610ecd578063ebd5842714610ee2575b600080fd5b3480156100ca57600080fd5b506100d3610f0c565b60408051918252519081900360200190f35b3480156100f157600080fd5b506100d36004803603606081101561010857600080fd5b81019060208101813564010000000081111561012357600080fd5b82018360208201111561013557600080fd5b8035906020019184600183028401116401000000008311171561015757600080fd5b91908080601f01602080910402602001604051908101604052809392919081815260200183838082843760009201919091525092959493602081019350359150506401000000008111156101aa57600080fd5b8201836020820111156101bc57600080fd5b803590602001918460018302840111640100000000831117156101de57600080fd5b91908080601f016020809104026020016040519081016040528093929190818152602001838380828437600092019190915250929594936020810193503591505064010000000081111561023157600080fd5b82018360208201111561024357600080fd5b8035906020019184600183028401116401000000008311171561026557600080fd5b91908080601f016020809104026020016040519081016040528093929190818152602001838380828437600092019190915250929550610f12945050505050565b3480156102b257600080fd5b506102d0600480360360208110156102c957600080fd5b5035610fd1565b60405180868152602001806020018060200180602001858152602001848103845288818151815260200191508051906020019080838360005b83811015610321578181015183820152602001610309565b50505050905090810190601f16801561034e5780820380516001836020036101000a031916815260200191505b50848103835287518152875160209182019189019080838360005b83811015610381578181015183820152602001610369565b50505050905090810190601f1680156103ae5780820380516001836020036101000a031916815260200191505b50848103825286518152865160209182019188019080838360005b838110156103e15781810151838201526020016103c9565b50505050905090810190601f16801561040e5780820380516001836020036101000a031916815260200191505b509850505050505050505060405180910390f35b34801561042e57600080fd5b506100d36004803603608081101561044557600080fd5b81019060208101813564010000000081111561046057600080fd5b82018360208201111561047257600080fd5b8035906020019184600183028401116401000000008311171561049457600080fd5b91908080601f01602080910402602001604051908101604052809392919081815260200183838082843760009201919091525092959493602081019350359150506401000000008111156104e757600080fd5b8201836020820111156104f957600080fd5b8035906020019184600183028401116401000000008311171561051b57600080fd5b91908080601f016020809104026020016040519081016040528093929190818152602001838380828437600092019190915250929594936020810193503591505064010000000081111561056e57600080fd5b82018360208201111561058057600080fd5b803590602001918460018302840111640100000000831117156105a257600080fd5b91908080601f01602080910402602001604051908101604052809392919081815260200183838082843760009201919091525092959493602081019350359150506401000000008111156105f557600080fd5b82018360208201111561060757600080fd5b8035906020019184600183028401116401000000008311171561062957600080fd5b91908080601f01602080910402602001604051908101604052809392919081815260200183838082843760009201919091525092955061119f945050505050565b34801561067657600080fd5b506107a46004803603604081101561068d57600080fd5b8101906020810181356401000000008111156106a857600080fd5b8201836020820111156106ba57600080fd5b803590602001918460018302840111640100000000831117156106dc57600080fd5b91908080601f016020809104026020016040519081016040528093929190818152602001838380828437600092019190915250929594936020810193503591505064010000000081111561072f57600080fd5b82018360208201111561074157600080fd5b8035906020019184600183028401116401000000008311171561076357600080fd5b91908080601f0160208091040260200160405190810160405280939291908181526020018383808284376000920191909152509295506113e8945050505050565b6040805160208082528351818301528351919283929083019185019080838360005b838110156107de5781810151838201526020016107c6565b50505050905090810190601f16801561080b5780820380516001836020036101000a031916815260200191505b509250505060405180910390f35b34801561082557600080fd5b506107a4611655565b34801561083a57600080fd5b506100d36004803603606081101561085157600080fd5b81019060208101813564010000000081111561086c57600080fd5b82018360208201111561087e57600080fd5b803590602001918460018302840111640100000000831117156108a057600080fd5b91908080601f01602080910402602001604051908101604052809392919081815260200183838082843760009201919091525092959493602081019350359150506401000000008111156108f357600080fd5b82018360208201111561090557600080fd5b8035906020019184600183028401116401000000008311171561092757600080fd5b91908080601f016020809104026020016040519081016040528093929190818152602001838380828437600092019190915250929594936020810193503591505064010000000081111561097a57600080fd5b82018360208201111561098c57600080fd5b803590602001918460018302840111640100000000831117156109ae57600080fd5b91908080601f0160208091040260200160405190810160405280939291908181526020018383808284376000920191909152509295506116e3945050505050565b3480156109fb57600080fd5b506100d360048036036060811015610a1257600080fd5b810190602081018135640100000000811115610a2d57600080fd5b820183602082011115610a3f57600080fd5b80359060200191846001830284011164010000000083111715610a6157600080fd5b91908080601f0160208091040260200160405190810160405280939291908181526020018383808284376000920191909152509295949360208101935035915050640100000000811115610ab457600080fd5b820183602082011115610ac657600080fd5b80359060200191846001830284011164010000000083111715610ae857600080fd5b91908080601f0160208091040260200160405190810160405280939291908181526020018383808284376000920191909152509295949360208101935035915050640100000000811115610b3b57600080fd5b820183602082011115610b4d57600080fd5b80359060200191846001830284011164010000000083111715610b6f57600080fd5b91908080601f0160208091040260200160405190810160405280939291908181526020018383808284376000920191909152509295506117f0945050505050565b348015610bbc57600080fd5b50610bda60048036036020811015610bd357600080fd5b5035611815565b604051808060200180602001838103835285818151815260200191508051906020019080838360005b83811015610c1b578181015183820152602001610c03565b50505050905090810190601f168015610c485780820380516001836020036101000a031916815260200191505b50838103825284518152845160209182019186019080838360005b83811015610c7b578181015183820152602001610c63565b50505050905090810190601f168015610ca85780820380516001836020036101000a031916815260200191505b5094505050505060405180910390f35b348015610cc457600080fd5b50610ce260048036036020811015610cdb57600080fd5b5035611955565b604051808881526020018060200180602001806020018773ffffffffffffffffffffffffffffffffffffffff1673ffffffffffffffffffffffffffffffffffffffff1681526020018681526020018060200185810385528b818151815260200191508051906020019080838360005b83811015610d69578181015183820152602001610d51565b50505050905090810190601f168015610d965780820380516001836020036101000a031916815260200191505b5085810384528a5181528a516020918201918c019080838360005b83811015610dc9578181015183820152602001610db1565b50505050905090810190601f168015610df65780820380516001836020036101000a031916815260200191505b5085810383528951815289516020918201918b019080838360005b83811015610e29578181015183820152602001610e11565b50505050905090810190601f168015610e565780820380516001836020036101000a031916815260200191505b50858103825286518152865160209182019188019080838360005b83811015610e89578181015183820152602001610e71565b50505050905090810190601f168015610eb65780820380516001836020036101000a031916815260200191505b509b50505050505050505050505060405180910390f35b348015610ed957600080fd5b506100d3611bd1565b348015610eee57600080fd5b506100d360048036036020811015610f0557600080fd5b5035611bd7565b60005481565b600080610f208585856117f0565b6040805160a0810182526000805480835260208084018b81528486018b9052606085018a905260808501879052918352600180825294909220835181559051805195965092949093610f7793908501920190611c28565b5060408201518051610f93916002840191602090910190611c28565b5060608201518051610faf916003840191602090910190611c28565b5060809190910151600490910155505060008054600181019091559392505050565b600160208181526000928352604092839020805481840180548651600296821615610100026000190190911695909504601f8101859004850286018501909652858552909491939290919083018282801561106d5780601f106110425761010080835404028352916020019161106d565b820191906000526020600020905b81548152906001019060200180831161105057829003601f168201915b50505060028085018054604080516020601f60001961010060018716150201909416959095049283018590048502810185019091528181529596959450909250908301828280156110ff5780601f106110d4576101008083540402835291602001916110ff565b820191906000526020600020905b8154815290600101906020018083116110e257829003601f168201915b5050505060038301805460408051602060026001851615610100026000190190941693909304601f810184900484028201840190925281815294959493509083018282801561118f5780601f106111645761010080835404028352916020019161118f565b820191906000526020600020905b81548152906001019060200180831161117257829003601f168201915b5050505050908060040154905085565b6000337399bc5c25cd1750e386b9440c77b6e76b2b77c91a8082141561136c5760006111cc8888896117f0565b6040805160e08101825260025480825260208083018d81528385018d9052606084018c905273ffffffffffffffffffffffffffffffffffffffff8916608085015260a0840186905260c084018b905260009283526004825293909120825181559251805194955091936112459260018501920190611c28565b5060408201518051611261916002840191602090910190611c28565b506060820151805161127d916003840191602090910190611c28565b50608082015160048201805473ffffffffffffffffffffffffffffffffffffffff191673ffffffffffffffffffffffffffffffffffffffff90921691909117905560a0820151600582015560c082015180516112e3916006840191602090910190611c28565b5050600280546001019055506040805160608101825260278082527f5375636365737366756c6c79205369676e75702c205065726d697373696f6e20602083019081527f4772616e74656400000000000000000000000000000000000000000000000000929093019190915261135b91600391611c28565b5060016002540393505050506113e0565b6040805160608101825260288082527f4e6f7420416c6c6f77656420746f205369676e75702c205065726d697373696f602083019081527f6e2044656e69656400000000000000000000000000000000000000000000000092909301919091526113d891600391611c28565b506000925050505b949350505050565b606060005b60025481101561163d57836040516020018082805190602001908083835b6020831061142a5780518252601f19909201916020918201910161140b565b6001836020036101000a038019825116818451168082178552505050505050905001915050604051602081830303815290604052805190602001206004600083815260200190815260200160002060010160405160200180828054600181600116156101000203166002900480156114d95780601f106114b75761010080835404028352918201916114d9565b820191906000526020600020905b8154815290600101906020018083116114c5575b5050915050604051602081830303815290604052805190602001201480156115fb5750826040516020018082805190602001908083835b6020831061152f5780518252601f199092019160209182019101611510565b6001836020036101000a038019825116818451168082178552505050505050905001915050604051602081830303815290604052805190602001206004600083815260200190815260200160002060020160405160200180828054600181600116156101000203166002900480156115de5780601f106115bc5761010080835404028352918201916115de565b820191906000526020600020905b8154815290600101906020018083116115ca575b505091505060405160208183030381529060405280519060200120145b1561163557600061160d8585866117f0565b60008381526004602052604090206005015490915081141561163357849250505061164f565b505b6001016113ed565b50506040805160208101909152600081525b92915050565b6003805460408051602060026001851615610100026000190190941693909304601f810184900484028201840190925281815292918301828280156116db5780601f106116b0576101008083540402835291602001916116db565b820191906000526020600020905b8154815290600101906020018083116116be57829003601f168201915b505050505081565b60008383836040516020018084805190602001908083835b6020831061171a5780518252601f1990920191602091820191016116fb565b51815160209384036101000a600019018019909216911617905286519190930192860191508083835b602083106117625780518252601f199092019160209182019101611743565b51815160209384036101000a600019018019909216911617905285519190930192850191508083835b602083106117aa5780518252601f19909201916020918201910161178b565b6001836020036101000a03801982511681845116808217855250505050505090500193505050506040516020818303038152906040528051906020012090509392505050565b6000806117fe8585856116e3565b9050600061180b82611bd7565b9695505050505050565b600081815260016020818152604092839020808301805485516002958216156101000260001901909116859004601f810185900485028201850190965285815260609586959294929093019290918491908301828280156118b75780601f1061188c576101008083540402835291602001916118b7565b820191906000526020600020905b81548152906001019060200180831161189a57829003601f168201915b5050845460408051602060026001851615610100026000190190941693909304601f8101849004840282018401909252818152959750869450925084019050828280156119455780601f1061191a57610100808354040283529160200191611945565b820191906000526020600020905b81548152906001019060200180831161192857829003601f168201915b5050505050905091509150915091565b6004602090815260009182526040918290208054600180830180548651600293821615610100026000190190911692909204601f8101869004860283018601909652858252919492939092908301828280156119f25780601f106119c7576101008083540402835291602001916119f2565b820191906000526020600020905b8154815290600101906020018083116119d557829003601f168201915b50505060028085018054604080516020601f6000196101006001871615020190941695909504928301859004850281018501909152818152959695945090925090830182828015611a845780601f10611a5957610100808354040283529160200191611a84565b820191906000526020600020905b815481529060010190602001808311611a6757829003601f168201915b5050505060038301805460408051602060026001851615610100026000190190941693909304601f8101849004840282018401909252818152949594935090830182828015611b145780601f10611ae957610100808354040283529160200191611b14565b820191906000526020600020905b815481529060010190602001808311611af757829003601f168201915b505050506004830154600584015460068501805460408051602060026101006001861615026000190190941693909304601f8101849004840282018401909252818152969773ffffffffffffffffffffffffffffffffffffffff9095169693955090830182828015611bc75780601f10611b9c57610100808354040283529160200191611bc7565b820191906000526020600020905b815481529060010190602001808311611baa57829003601f168201915b5050505050905087565b60025481565b604080517f19457468657265756d205369676e6564204d6573736167653a0a333200000000602080830191909152603c8083019490945282518083039094018452605c909101909152815191012090565b828054600181600116156101000203166002900490600052602060002090601f016020900481019282601f10611c6957805160ff1916838001178555611c96565b82800160010185558215611c96579182015b82811115611c96578251825591602001919060010190611c7b565b50611ca2929150611ca6565b5090565b611cc091905b80821115611ca25760008155600101611cac565b9056fea165627a7a723058208ef7b029c2f3051c8d3fe4e831126b218c63a92a02fb499ce3129996d1adcf540029",
  "source": "pragma solidity ^0.5.0;\r\n\r\ncontract DegreeVerification\r\n{\r\n    uint public NextDegreeId;\r\n    \r\n    struct DegreeData\r\n    {\r\n        uint UniqueId;\r\n        string DegreeName;\r\n        string UniversityName;\r\n        string DegreeJSON;\r\n        bytes32 DegreeHash;\r\n    }\r\n    \r\n    mapping(uint => DegreeData) public DegreeDataList;\r\n    \r\n    function CreateDegree(string memory _degreeName, string memory _universityName, string memory _degreeJSON) public returns (uint)\r\n    {\r\n        bytes32 _degreeHash = GetEthDegreeHash(_degreeName, _universityName, _degreeJSON);\r\n        DegreeDataList[NextDegreeId] = DegreeData(NextDegreeId, _degreeName, _universityName, _degreeJSON, _degreeHash);\r\n        NextDegreeId++;\r\n        return NextDegreeId - 1;\r\n    }\r\n    \r\n    function VerifyDegree(uint uniqueId) view public returns(string memory, string memory)\r\n    {\r\n        return(DegreeDataList[uniqueId].DegreeName, DegreeDataList[uniqueId].UniversityName); \r\n    }\r\n\r\n    /*\r\n    // User Registration and Login\r\n    */\r\n\r\n    uint public NextStakeholderId;\r\n    string public SignUpStateMessage;\r\n    \r\n    struct Stakeholder\r\n    {\r\n        uint UniqueId;\r\n        string Username;\r\n        string UserPass;\r\n        string FullName;\r\n        address UserAddress;\r\n        bytes32 StakeholderHash;\r\n        string AccountType;\r\n    }\r\n    \r\n    mapping(uint => Stakeholder) public StakeholderList;\r\n\r\n    function SignupStakeholder(string memory _usermame, string memory _password, string memory _fullName, string memory _accountType) public returns (uint)\r\n    {\r\n        address sender = msg.sender;\r\n        address adminAddress = 0x99BC5c25Cd1750E386B9440C77b6e76b2b77C91A;\r\n\r\n        if(sender == adminAddress)\r\n        {\r\n            bytes32 _stakeHolderHash = GetEthDegreeHash(_usermame, _password, _password);\r\n\r\n            StakeholderList[NextStakeholderId] = Stakeholder(NextStakeholderId, _usermame, _password, _fullName, sender, _stakeHolderHash, _accountType);\r\n            NextStakeholderId++;\r\n            SignUpStateMessage = \"Successfully Signup, Permission Granted\";\r\n            return NextStakeholderId - 1;\r\n        }\r\n        SignUpStateMessage = \"Not Allowed to Signup, Permission Denied\";\r\n        return 0;\r\n    }\r\n    \r\n    function SignInStakeholder(string memory _usermame, string memory _password) view public returns(string memory)\r\n    {\r\n        for(uint i= 0; i<NextStakeholderId; i++)\r\n        {\r\n            if(keccak256(abi.encodePacked((StakeholderList[i].Username))) == keccak256(abi.encodePacked((_usermame))) &&  keccak256(abi.encodePacked((StakeholderList[i].UserPass))) == keccak256(abi.encodePacked((_password))))\r\n            {\r\n                bytes32 _stakeHolderHash = GetEthDegreeHash(_usermame, _password, _password);\r\n\r\n                if(StakeholderList[i].StakeholderHash == _stakeHolderHash)\r\n                {\r\n                   return _usermame;\r\n                }\r\n            }\r\n        }\r\n        return \"\";\r\n    }\r\n\r\n    /*    \r\n    // Create and Verifying Hash\r\n    */    \r\n    \r\n    function GetEthDegreeHash(string memory _degreeName, string memory _universityName, string memory _degreeJSON) public pure returns (bytes32)\r\n    {\r\n        bytes32 messageHash = GetMessageHash(_degreeName, _universityName, _degreeJSON);\r\n        bytes32 ethSignMessageHash = GetEthMessageSignedHash(messageHash);\r\n        \r\n        return ethSignMessageHash;\r\n    }\r\n    \r\n    function GetMessageHash(string memory _degreeName, string memory _universityName, string memory _degreeJSON) public pure returns (bytes32)\r\n    {\r\n        // have to add uniqueId in parameter to distinguish hash\r\n        return keccak256(abi.encodePacked(_degreeName, _universityName, _degreeJSON));\r\n    }\r\n    \r\n    function GetEthMessageSignedHash(bytes32 _messageHash) public pure returns (bytes32)\r\n    {\r\n        // prefix Ethereum signing message (32 bit) \r\n        // followed by length of message it required for ecrecover function\r\n        return keccak256(abi.encodePacked(\"\\x19Ethereum Signed Message:\\n32\", _messageHash));\r\n    }\r\n}",
  "sourcePath": "D:/Personal/Masters Related/Block chain/Project/eth-DegreeVerification/contracts/DegreeVerification.sol",
  "compiler": {
    "name": "solc",
    "version": "0.5.0+commit.1d4f565a.Emscripten.clang"
  },
  "schemaVersion": "3.0.1",
  "updatedAt": "2021-01-24T22:15:26.905Z",
  "devdoc": {
    "methods": {}
  },
  "userdoc": {
    "methods": {}
  }
}