{
  "contractName": "DegreeVerification",
  "abi": [
    {
      "constant": true,
      "inputs": [],
      "name": "NextDegreeId",
      "outputs": [
        {
          "name": "",
          "type": "uint256"
        }
      ],
      "payable": false,
      "stateMutability": "view",
      "type": "function",
      "signature": "0x0de425d0"
    },
    {
      "constant": true,
      "inputs": [
        {
          "name": "",
          "type": "uint256"
        }
      ],
      "name": "DegreeDataList",
      "outputs": [
        {
          "name": "SerialNumber",
          "type": "uint256"
        },
        {
          "name": "NationalIdentityCard",
          "type": "string"
        },
        {
          "name": "StudentName",
          "type": "string"
        },
        {
          "name": "StudentId",
          "type": "string"
        },
        {
          "name": "DegreeTitle",
          "type": "string"
        },
        {
          "name": "UniversityName",
          "type": "string"
        },
        {
          "name": "DegreeJSON",
          "type": "string"
        },
        {
          "name": "DegreeHash",
          "type": "bytes32"
        },
        {
          "name": "InsertedBy",
          "type": "address"
        }
      ],
      "payable": false,
      "stateMutability": "view",
      "type": "function",
      "signature": "0x4c4a71aa"
    },
    {
      "constant": true,
      "inputs": [],
      "name": "SignUpStateMessage",
      "outputs": [
        {
          "name": "",
          "type": "string"
        }
      ],
      "payable": false,
      "stateMutability": "view",
      "type": "function",
      "signature": "0x6b622683"
    },
    {
      "constant": true,
      "inputs": [
        {
          "name": "",
          "type": "uint256"
        }
      ],
      "name": "StakeholderList",
      "outputs": [
        {
          "name": "UniqueId",
          "type": "uint256"
        },
        {
          "name": "Username",
          "type": "string"
        },
        {
          "name": "UserPass",
          "type": "string"
        },
        {
          "name": "FullName",
          "type": "string"
        },
        {
          "name": "UserAddress",
          "type": "address"
        },
        {
          "name": "StakeholderHash",
          "type": "bytes32"
        },
        {
          "name": "AccountType",
          "type": "string"
        }
      ],
      "payable": false,
      "stateMutability": "view",
      "type": "function",
      "signature": "0xb4350a62"
    },
    {
      "constant": true,
      "inputs": [],
      "name": "NextStakeholderId",
      "outputs": [
        {
          "name": "",
          "type": "uint256"
        }
      ],
      "payable": false,
      "stateMutability": "view",
      "type": "function",
      "signature": "0xd761b4a9"
    },
    {
      "constant": false,
      "inputs": [
        {
          "name": "_nationIdCard",
          "type": "string"
        },
        {
          "name": "_studentName",
          "type": "string"
        },
        {
          "name": "_studentId",
          "type": "string"
        },
        {
          "name": "_degreeTitle",
          "type": "string"
        },
        {
          "name": "_universityName",
          "type": "string"
        },
        {
          "name": "_degreeJSON",
          "type": "string"
        }
      ],
      "name": "CreateDegree",
      "outputs": [
        {
          "name": "",
          "type": "uint256"
        }
      ],
      "payable": false,
      "stateMutability": "nonpayable",
      "type": "function",
      "signature": "0x2500c04c"
    },
    {
      "constant": true,
      "inputs": [
        {
          "name": "_degreeId",
          "type": "uint256"
        }
      ],
      "name": "GetDegreeInfo",
      "outputs": [
        {
          "name": "",
          "type": "uint256"
        },
        {
          "name": "",
          "type": "string"
        },
        {
          "name": "",
          "type": "string"
        },
        {
          "name": "",
          "type": "string"
        },
        {
          "name": "",
          "type": "string"
        },
        {
          "name": "",
          "type": "string"
        },
        {
          "name": "",
          "type": "bytes32"
        }
      ],
      "payable": false,
      "stateMutability": "view",
      "type": "function",
      "signature": "0x79986a9b"
    },
    {
      "constant": true,
      "inputs": [
        {
          "name": "_nationIdCard",
          "type": "string"
        },
        {
          "name": "_degreeTitle",
          "type": "string"
        },
        {
          "name": "_university",
          "type": "string"
        }
      ],
      "name": "GetDegreeInfo",
      "outputs": [
        {
          "name": "",
          "type": "bytes32"
        },
        {
          "name": "",
          "type": "uint256"
        }
      ],
      "payable": false,
      "stateMutability": "view",
      "type": "function",
      "signature": "0xfe9a51ee"
    },
    {
      "constant": true,
      "inputs": [
        {
          "name": "_degreeId",
          "type": "uint256"
        },
        {
          "name": "_degreeRequestedHash",
          "type": "bytes32"
        }
      ],
      "name": "VerifyDegree",
      "outputs": [
        {
          "name": "",
          "type": "uint256"
        },
        {
          "name": "",
          "type": "string"
        },
        {
          "name": "",
          "type": "string"
        },
        {
          "name": "",
          "type": "string"
        },
        {
          "name": "",
          "type": "string"
        },
        {
          "name": "",
          "type": "address"
        }
      ],
      "payable": false,
      "stateMutability": "view",
      "type": "function",
      "signature": "0xc30392ff"
    },
    {
      "constant": false,
      "inputs": [
        {
          "name": "_usermame",
          "type": "string"
        },
        {
          "name": "_password",
          "type": "string"
        },
        {
          "name": "_fullName",
          "type": "string"
        },
        {
          "name": "_accountType",
          "type": "string"
        }
      ],
      "name": "SignupStakeholder",
      "outputs": [
        {
          "name": "",
          "type": "uint256"
        }
      ],
      "payable": false,
      "stateMutability": "nonpayable",
      "type": "function",
      "signature": "0x4ea6e4c2"
    },
    {
      "constant": true,
      "inputs": [
        {
          "name": "_usermame",
          "type": "string"
        },
        {
          "name": "_password",
          "type": "string"
        }
      ],
      "name": "SignInStakeholder",
      "outputs": [
        {
          "name": "",
          "type": "string"
        }
      ],
      "payable": false,
      "stateMutability": "view",
      "type": "function",
      "signature": "0x63aeb9a5"
    },
    {
      "constant": true,
      "inputs": [
        {
          "name": "_degreeName",
          "type": "string"
        },
        {
          "name": "_universityName",
          "type": "string"
        },
        {
          "name": "_degreeJSON",
          "type": "string"
        }
      ],
      "name": "GetEthDegreeHash",
      "outputs": [
        {
          "name": "",
          "type": "bytes32"
        }
      ],
      "payable": false,
      "stateMutability": "pure",
      "type": "function",
      "signature": "0x882c6d06"
    },
    {
      "constant": true,
      "inputs": [
        {
          "name": "_degreeName",
          "type": "string"
        },
        {
          "name": "_universityName",
          "type": "string"
        },
        {
          "name": "_degreeJSON",
          "type": "string"
        }
      ],
      "name": "GetMessageHash",
      "outputs": [
        {
          "name": "",
          "type": "bytes32"
        }
      ],
      "payable": false,
      "stateMutability": "pure",
      "type": "function",
      "signature": "0x6bb98e66"
    },
    {
      "constant": true,
      "inputs": [
        {
          "name": "_messageHash",
          "type": "bytes32"
        }
      ],
      "name": "GetEthMessageSignedHash",
      "outputs": [
        {
          "name": "",
          "type": "bytes32"
        }
      ],
      "payable": false,
      "stateMutability": "pure",
      "type": "function",
      "signature": "0xebd58427"
    }
  ],
  "bytecode": "0x608060405234801561001057600080fd5b506130d1806100206000396000f3fe6080604052600436106100cf5763ffffffff7c01000000000000000000000000000000000000000000000000000000006000350416630de425d081146100d45780632500c04c146100fb5780634c4a71aa146104515780634ea6e4c21461071b57806363aeb9a5146109635780636b62268314610b125780636bb98e6614610b2757806379986a9b14610ce8578063882c6d0614610f30578063b4350a62146110f1578063c30392ff146112ec578063d761b4a9146114e6578063ebd58427146114fb578063fe9a51ee14611525575b600080fd5b3480156100e057600080fd5b506100e96116ff565b60408051918252519081900360200190f35b34801561010757600080fd5b506100e9600480360360c081101561011e57600080fd5b81019060208101813564010000000081111561013957600080fd5b82018360208201111561014b57600080fd5b8035906020019184600183028401116401000000008311171561016d57600080fd5b91908080601f01602080910402602001604051908101604052809392919081815260200183838082843760009201919091525092959493602081019350359150506401000000008111156101c057600080fd5b8201836020820111156101d257600080fd5b803590602001918460018302840111640100000000831117156101f457600080fd5b91908080601f016020809104026020016040519081016040528093929190818152602001838380828437600092019190915250929594936020810193503591505064010000000081111561024757600080fd5b82018360208201111561025957600080fd5b8035906020019184600183028401116401000000008311171561027b57600080fd5b91908080601f01602080910402602001604051908101604052809392919081815260200183838082843760009201919091525092959493602081019350359150506401000000008111156102ce57600080fd5b8201836020820111156102e057600080fd5b8035906020019184600183028401116401000000008311171561030257600080fd5b91908080601f016020809104026020016040519081016040528093929190818152602001838380828437600092019190915250929594936020810193503591505064010000000081111561035557600080fd5b82018360208201111561036757600080fd5b8035906020019184600183028401116401000000008311171561038957600080fd5b91908080601f01602080910402602001604051908101604052809392919081815260200183838082843760009201919091525092959493602081019350359150506401000000008111156103dc57600080fd5b8201836020820111156103ee57600080fd5b8035906020019184600183028401116401000000008311171561041057600080fd5b91908080601f016020809104026020016040519081016040528093929190818152602001838380828437600092019190915250929550611705945050505050565b34801561045d57600080fd5b5061047b6004803603602081101561047457600080fd5b503561186b565b604051808a815260200180602001806020018060200180602001806020018060200189815260200188600160a060020a0316600160a060020a0316815260200187810387528f818151815260200191508051906020019080838360005b838110156104f05781810151838201526020016104d8565b50505050905090810190601f16801561051d5780820380516001836020036101000a031916815260200191505b5087810386528e818151815260200191508051906020019080838360005b8381101561055357818101518382015260200161053b565b50505050905090810190601f1680156105805780820380516001836020036101000a031916815260200191505b5087810385528d5181528d516020918201918f019080838360005b838110156105b357818101518382015260200161059b565b50505050905090810190601f1680156105e05780820380516001836020036101000a031916815260200191505b5087810384528c5181528c516020918201918e019080838360005b838110156106135781810151838201526020016105fb565b50505050905090810190601f1680156106405780820380516001836020036101000a031916815260200191505b5087810383528b5181528b516020918201918d019080838360005b8381101561067357818101518382015260200161065b565b50505050905090810190601f1680156106a05780820380516001836020036101000a031916815260200191505b5087810382528a5181528a516020918201918c019080838360005b838110156106d35781810151838201526020016106bb565b50505050905090810190601f1680156107005780820380516001836020036101000a031916815260200191505b509f5050505050505050505050505050505060405180910390f35b34801561072757600080fd5b506100e96004803603608081101561073e57600080fd5b81019060208101813564010000000081111561075957600080fd5b82018360208201111561076b57600080fd5b8035906020019184600183028401116401000000008311171561078d57600080fd5b91908080601f01602080910402602001604051908101604052809392919081815260200183838082843760009201919091525092959493602081019350359150506401000000008111156107e057600080fd5b8201836020820111156107f257600080fd5b8035906020019184600183028401116401000000008311171561081457600080fd5b91908080601f016020809104026020016040519081016040528093929190818152602001838380828437600092019190915250929594936020810193503591505064010000000081111561086757600080fd5b82018360208201111561087957600080fd5b8035906020019184600183028401116401000000008311171561089b57600080fd5b91908080601f01602080910402602001604051908101604052809392919081815260200183838082843760009201919091525092959493602081019350359150506401000000008111156108ee57600080fd5b82018360208201111561090057600080fd5b8035906020019184600183028401116401000000008311171561092257600080fd5b91908080601f016020809104026020016040519081016040528093929190818152602001838380828437600092019190915250929550611bf9945050505050565b34801561096f57600080fd5b50610a9d6004803603604081101561098657600080fd5b8101906020810181356401000000008111156109a157600080fd5b8201836020820111156109b357600080fd5b803590602001918460018302840111640100000000831117156109d557600080fd5b91908080601f0160208091040260200160405190810160405280939291908181526020018383808284376000920191909152509295949360208101935035915050640100000000811115610a2857600080fd5b820183602082011115610a3a57600080fd5b80359060200191846001830284011164010000000083111715610a5c57600080fd5b91908080601f016020809104026020016040519081016040528093929190818152602001838380828437600092019190915250929550611e28945050505050565b6040805160208082528351818301528351919283929083019185019080838360005b83811015610ad7578181015183820152602001610abf565b50505050905090810190601f168015610b045780820380516001836020036101000a031916815260200191505b509250505060405180910390f35b348015610b1e57600080fd5b50610a9d612095565b348015610b3357600080fd5b506100e960048036036060811015610b4a57600080fd5b810190602081018135640100000000811115610b6557600080fd5b820183602082011115610b7757600080fd5b80359060200191846001830284011164010000000083111715610b9957600080fd5b91908080601f0160208091040260200160405190810160405280939291908181526020018383808284376000920191909152509295949360208101935035915050640100000000811115610bec57600080fd5b820183602082011115610bfe57600080fd5b80359060200191846001830284011164010000000083111715610c2057600080fd5b91908080601f0160208091040260200160405190810160405280939291908181526020018383808284376000920191909152509295949360208101935035915050640100000000811115610c7357600080fd5b820183602082011115610c8557600080fd5b80359060200191846001830284011164010000000083111715610ca757600080fd5b91908080601f016020809104026020016040519081016040528093929190818152602001838380828437600092019190915250929550612123945050505050565b348015610cf457600080fd5b50610d1260048036036020811015610d0b57600080fd5b5035612230565b60405180888152602001806020018060200180602001806020018060200187815260200186810386528c818151815260200191508051906020019080838360005b83811015610d6b578181015183820152602001610d53565b50505050905090810190601f168015610d985780820380516001836020036101000a031916815260200191505b5086810385528b5181528b516020918201918d019080838360005b83811015610dcb578181015183820152602001610db3565b50505050905090810190601f168015610df85780820380516001836020036101000a031916815260200191505b5086810384528a5181528a516020918201918c019080838360005b83811015610e2b578181015183820152602001610e13565b50505050905090810190601f168015610e585780820380516001836020036101000a031916815260200191505b5086810383528951815289516020918201918b019080838360005b83811015610e8b578181015183820152602001610e73565b50505050905090810190601f168015610eb85780820380516001836020036101000a031916815260200191505b5086810382528851815288516020918201918a019080838360005b83811015610eeb578181015183820152602001610ed3565b50505050905090810190601f168015610f185780820380516001836020036101000a031916815260200191505b509c5050505050505050505050505060405180910390f35b348015610f3c57600080fd5b506100e960048036036060811015610f5357600080fd5b810190602081018135640100000000811115610f6e57600080fd5b820183602082011115610f8057600080fd5b80359060200191846001830284011164010000000083111715610fa257600080fd5b91908080601f0160208091040260200160405190810160405280939291908181526020018383808284376000920191909152509295949360208101935035915050640100000000811115610ff557600080fd5b82018360208201111561100757600080fd5b8035906020019184600183028401116401000000008311171561102957600080fd5b91908080601f016020809104026020016040519081016040528093929190818152602001838380828437600092019190915250929594936020810193503591505064010000000081111561107c57600080fd5b82018360208201111561108e57600080fd5b803590602001918460018302840111640100000000831117156110b057600080fd5b91908080601f016020809104026020016040519081016040528093929190818152602001838380828437600092019190915250929550612545945050505050565b3480156110fd57600080fd5b5061111b6004803603602081101561111457600080fd5b503561256a565b6040518088815260200180602001806020018060200187600160a060020a0316600160a060020a031681526020018681526020018060200185810385528b818151815260200191508051906020019080838360005b83811015611188578181015183820152602001611170565b50505050905090810190601f1680156111b55780820380516001836020036101000a031916815260200191505b5085810384528a5181528a516020918201918c019080838360005b838110156111e85781810151838201526020016111d0565b50505050905090810190601f1680156112155780820380516001836020036101000a031916815260200191505b5085810383528951815289516020918201918b019080838360005b83811015611248578181015183820152602001611230565b50505050905090810190601f1680156112755780820380516001836020036101000a031916815260200191505b50858103825286518152865160209182019188019080838360005b838110156112a8578181015183820152602001611290565b50505050905090810190601f1680156112d55780820380516001836020036101000a031916815260200191505b509b50505050505050505050505060405180910390f35b3480156112f857600080fd5b5061131c6004803603604081101561130f57600080fd5b50803590602001356127d9565b604051808781526020018060200180602001806020018060200186600160a060020a0316600160a060020a0316815260200185810385528a818151815260200191508051906020019080838360005b8381101561138357818101518382015260200161136b565b50505050905090810190601f1680156113b05780820380516001836020036101000a031916815260200191505b5085810384528951815289516020918201918b019080838360005b838110156113e35781810151838201526020016113cb565b50505050905090810190601f1680156114105780820380516001836020036101000a031916815260200191505b5085810383528851815288516020918201918a019080838360005b8381101561144357818101518382015260200161142b565b50505050905090810190601f1680156114705780820380516001836020036101000a031916815260200191505b50858103825287518152875160209182019189019080838360005b838110156114a357818101518382015260200161148b565b50505050905090810190601f1680156114d05780820380516001836020036101000a031916815260200191505b509a505050505050505050505060405180910390f35b3480156114f257600080fd5b506100e9612c64565b34801561150757600080fd5b506100e96004803603602081101561151e57600080fd5b5035612c6a565b34801561153157600080fd5b506116e66004803603606081101561154857600080fd5b81019060208101813564010000000081111561156357600080fd5b82018360208201111561157557600080fd5b8035906020019184600183028401116401000000008311171561159757600080fd5b91908080601f01602080910402602001604051908101604052809392919081815260200183838082843760009201919091525092959493602081019350359150506401000000008111156115ea57600080fd5b8201836020820111156115fc57600080fd5b8035906020019184600183028401116401000000008311171561161e57600080fd5b91908080601f016020809104026020016040519081016040528093929190818152602001838380828437600092019190915250929594936020810193503591505064010000000081111561167157600080fd5b82018360208201111561168357600080fd5b803590602001918460018302840111640100000000831117156116a557600080fd5b91908080601f016020809104026020016040519081016040528093929190818152602001838380828437600092019190915250929550612cbb945050505050565b6040805192835260208301919091528051918290030190f35b60005481565b600080611713858585612545565b60408051610120810182526000805480835260208084018e81528486018e9052606085018d9052608085018c905260a085018b905260c085018a905260e08501879052336101008601529183526001808252949092208351815590518051959650929490936117879390850192019061300a565b50604082015180516117a391600284019160209091019061300a565b50606082015180516117bf91600384019160209091019061300a565b50608082015180516117db91600484019160209091019061300a565b5060a082015180516117f791600584019160209091019061300a565b5060c0820151805161181391600684019160209091019061300a565b5060e08201516007820155610100909101516008909101805473ffffffffffffffffffffffffffffffffffffffff1916600160a060020a03909216919091179055505060008054600181019091559695505050505050565b600160208181526000928352604092839020805481840180548651600296821615610100026000190190911695909504601f810185900485028601850190965285855290949193929091908301828280156119075780601f106118dc57610100808354040283529160200191611907565b820191906000526020600020905b8154815290600101906020018083116118ea57829003601f168201915b50505060028085018054604080516020601f60001961010060018716150201909416959095049283018590048502810185019091528181529596959450909250908301828280156119995780601f1061196e57610100808354040283529160200191611999565b820191906000526020600020905b81548152906001019060200180831161197c57829003601f168201915b5050505060038301805460408051602060026001851615610100026000190190941693909304601f8101849004840282018401909252818152949594935090830182828015611a295780601f106119fe57610100808354040283529160200191611a29565b820191906000526020600020905b815481529060010190602001808311611a0c57829003601f168201915b5050505060048301805460408051602060026001851615610100026000190190941693909304601f8101849004840282018401909252818152949594935090830182828015611ab95780601f10611a8e57610100808354040283529160200191611ab9565b820191906000526020600020905b815481529060010190602001808311611a9c57829003601f168201915b5050505060058301805460408051602060026001851615610100026000190190941693909304601f8101849004840282018401909252818152949594935090830182828015611b495780601f10611b1e57610100808354040283529160200191611b49565b820191906000526020600020905b815481529060010190602001808311611b2c57829003601f168201915b5050505060068301805460408051602060026001851615610100026000190190941693909304601f8101849004840282018401909252818152949594935090830182828015611bd95780601f10611bae57610100808354040283529160200191611bd9565b820191906000526020600020905b815481529060010190602001808311611bbc57829003601f168201915b505050506007830154600890930154919291600160a060020a0316905089565b6000337399bc5c25cd1750e386b9440c77b6e76b2b77c91a80821415611dac576000611c26888889612545565b6040805160e08101825260025480825260208083018d81528385018d9052606084018c9052600160a060020a038916608085015260a0840186905260c084018b90526000928352600482529390912082518155925180519495509193611c92926001850192019061300a565b5060408201518051611cae91600284019160209091019061300a565b5060608201518051611cca91600384019160209091019061300a565b50608082015160048201805473ffffffffffffffffffffffffffffffffffffffff1916600160a060020a0390921691909117905560a0820151600582015560c08201518051611d2391600684019160209091019061300a565b5050600280546001019055506040805160608101825260278082527f5375636365737366756c6c79205369676e75702c205065726d697373696f6e20602083019081527f4772616e746564000000000000000000000000000000000000000000000000009290930191909152611d9b9160039161300a565b506001600254039350505050611e20565b6040805160608101825260288082527f4e6f7420416c6c6f77656420746f205369676e75702c205065726d697373696f602083019081527f6e2044656e6965640000000000000000000000000000000000000000000000009290930191909152611e189160039161300a565b506000925050505b949350505050565b606060005b60025481101561207d57836040516020018082805190602001908083835b60208310611e6a5780518252601f199092019160209182019101611e4b565b6001836020036101000a03801982511681845116808217855250505050505090500191505060405160208183030381529060405280519060200120600460008381526020019081526020016000206001016040516020018082805460018160011615610100020316600290048015611f195780601f10611ef7576101008083540402835291820191611f19565b820191906000526020600020905b815481529060010190602001808311611f05575b50509150506040516020818303038152906040528051906020012014801561203b5750826040516020018082805190602001908083835b60208310611f6f5780518252601f199092019160209182019101611f50565b6001836020036101000a0380198251168184511680821785525050505050509050019150506040516020818303038152906040528051906020012060046000838152602001908152602001600020600201604051602001808280546001816001161561010002031660029004801561201e5780601f10611ffc57610100808354040283529182019161201e565b820191906000526020600020905b81548152906001019060200180831161200a575b505091505060405160208183030381529060405280519060200120145b1561207557600061204d858586612545565b60008381526004602052604090206005015490915081141561207357849250505061208f565b505b600101611e2d565b50506040805160208101909152600081525b92915050565b6003805460408051602060026001851615610100026000190190941693909304601f8101849004840282018401909252818152929183018282801561211b5780601f106120f05761010080835404028352916020019161211b565b820191906000526020600020905b8154815290600101906020018083116120fe57829003601f168201915b505050505081565b60008383836040516020018084805190602001908083835b6020831061215a5780518252601f19909201916020918201910161213b565b51815160209384036101000a600019018019909216911617905286519190930192860191508083835b602083106121a25780518252601f199092019160209182019101612183565b51815160209384036101000a600019018019909216911617905285519190930192850191508083835b602083106121ea5780518252601f1990920191602091820191016121cb565b6001836020036101000a03801982511681845116808217855250505050505090500193505050506040516020818303038152906040528051906020012090509392505050565b600081815260016020818152604080842080546007820154828601805485516002988216156101000260001901909116889004601f810188900488028201880190965285815260609788978897889788978d97909695948201946003830194600484019460059094019388918301828280156122ed5780601f106122c2576101008083540402835291602001916122ed565b820191906000526020600020905b8154815290600101906020018083116122d057829003601f168201915b5050885460408051602060026001851615610100026000190190941693909304601f8101849004840282018401909252818152959b508a94509250840190508282801561237b5780601f106123505761010080835404028352916020019161237b565b820191906000526020600020905b81548152906001019060200180831161235e57829003601f168201915b5050875460408051602060026001851615610100026000190190941693909304601f8101849004840282018401909252818152959a50899450925084019050828280156124095780601f106123de57610100808354040283529160200191612409565b820191906000526020600020905b8154815290600101906020018083116123ec57829003601f168201915b5050865460408051602060026001851615610100026000190190941693909304601f8101849004840282018401909252818152959950889450925084019050828280156124975780601f1061246c57610100808354040283529160200191612497565b820191906000526020600020905b81548152906001019060200180831161247a57829003601f168201915b5050855460408051602060026001851615610100026000190190941693909304601f8101849004840282018401909252818152959850879450925084019050828280156125255780601f106124fa57610100808354040283529160200191612525565b820191906000526020600020905b81548152906001019060200180831161250857829003601f168201915b505050505091509650965096509650965096509650919395979092949650565b600080612553858585612123565b9050600061256082612c6a565b9695505050505050565b6004602090815260009182526040918290208054600180830180548651600293821615610100026000190190911692909204601f8101869004860283018601909652858252919492939092908301828280156126075780601f106125dc57610100808354040283529160200191612607565b820191906000526020600020905b8154815290600101906020018083116125ea57829003601f168201915b50505060028085018054604080516020601f60001961010060018716150201909416959095049283018590048502810185019091528181529596959450909250908301828280156126995780601f1061266e57610100808354040283529160200191612699565b820191906000526020600020905b81548152906001019060200180831161267c57829003601f168201915b5050505060038301805460408051602060026001851615610100026000190190941693909304601f81018490048402820184019092528181529495949350908301828280156127295780601f106126fe57610100808354040283529160200191612729565b820191906000526020600020905b81548152906001019060200180831161270c57829003601f168201915b505050506004830154600584015460068501805460408051602060026101006001861615026000190190941693909304601f81018490048402820184019092528181529697600160a060020a0390951696939550908301828280156127cf5780601f106127a4576101008083540402835291602001916127cf565b820191906000526020600020905b8154815290600101906020018083116127b257829003601f168201915b5050505050905087565b60006060806060806000806129d1600160008b81526020019081526020016000206004018054600181600116156101000203166002900480601f0160208091040260200160405190810160405280929190818152602001828054600181600116156101000203166002900480156128915780601f1061286657610100808354040283529160200191612891565b820191906000526020600020905b81548152906001019060200180831161287457829003601f168201915b50505060008d81526001602081815260409283902060050180548451600294821615610100026000190190911693909304601f810183900483028401830190945283835291945090925083018282801561292c5780601f106129015761010080835404028352916020019161292c565b820191906000526020600020905b81548152906001019060200180831161290f57829003601f168201915b50505060008e81526001602081815260409283902060060180548451600294821615610100026000190190911693909304601f81018390048302840183019094528383529194509092508301828280156129c75780601f1061299c576101008083540402835291602001916129c7565b820191906000526020600020905b8154815290600101906020018083116129aa57829003601f168201915b5050505050612545565b905087811415612c58576000898152600160208181526040928390208054600882015482850180548751601f600260001999841615610100029990990190921688900491820187900487028101870190985280885292969095840194600385019460040193600160a060020a03909316928791830182828015612a955780601f10612a6a57610100808354040283529160200191612a95565b820191906000526020600020905b815481529060010190602001808311612a7857829003601f168201915b5050875460408051602060026001851615610100026000190190941693909304601f8101849004840282018401909252818152959a5089945092508401905082828015612b235780601f10612af857610100808354040283529160200191612b23565b820191906000526020600020905b815481529060010190602001808311612b0657829003601f168201915b5050865460408051602060026001851615610100026000190190941693909304601f810184900484028201840190925281815295995088945092508401905082828015612bb15780601f10612b8657610100808354040283529160200191612bb1565b820191906000526020600020905b815481529060010190602001808311612b9457829003601f168201915b5050855460408051602060026001851615610100026000190190941693909304601f810184900484028201840190925281815295985087945092508401905082828015612c3f5780601f10612c1457610100808354040283529160200191612c3f565b820191906000526020600020905b815481529060010190602001808311612c2257829003601f168201915b5050505050915096509650965096509650965050612c5a565b505b9295509295509295565b60025481565b604080517f19457468657265756d205369676e6564204d6573736167653a0a333200000000602080830191909152603c8083019490945282518083039094018452605c909101909152815191012090565b600080805b60025481101561300057856040516020018082805190602001908083835b60208310612cfd5780518252601f199092019160209182019101612cde565b6001836020036101000a03801982511681845116808217855250505050505090500191505060405160208183030381529060405280519060200120600160008381526020019081526020016000206001016040516020018082805460018160011615610100020316600290048015612dac5780601f10612d8a576101008083540402835291820191612dac565b820191906000526020600020905b815481529060010190602001808311612d98575b505091505060405160208183030381529060405280519060200120148015612ece5750846040516020018082805190602001908083835b60208310612e025780518252601f199092019160209182019101612de3565b6001836020036101000a03801982511681845116808217855250505050505090500191505060405160208183030381529060405280519060200120600160008381526020019081526020016000206004016040516020018082805460018160011615610100020316600290048015612eb15780601f10612e8f576101008083540402835291820191612eb1565b820191906000526020600020905b815481529060010190602001808311612e9d575b505091505060405160208183030381529060405280519060200120145b8015612fd45750836040516020018082805190602001908083835b60208310612f085780518252601f199092019160209182019101612ee9565b6001836020036101000a03801982511681845116808217855250505050505090500191505060405160208183030381529060405280519060200120600160008381526020019081526020016000206005016040516020018082805460018160011615610100020316600290048015612fb75780601f10612f95576101008083540402835291820191612fb7565b820191906000526020600020905b815481529060010190602001808311612fa3575b505091505060405160208183030381529060405280519060200120145b15612ff8576000908152600160205260409020600781015490549092509050613002565b600101612cc0565b505b935093915050565b828054600181600116156101000203166002900490600052602060002090601f016020900481019282601f1061304b57805160ff1916838001178555613078565b82800160010185558215613078579182015b8281111561307857825182559160200191906001019061305d565b50613084929150613088565b5090565b6130a291905b80821115613084576000815560010161308e565b9056fea165627a7a723058206046af9fd6da3da0423b2ec832898ff4d8550061abaaecb3afa09fe5c3829f2e0029",
  "source": "pragma solidity ^0.5.0;\r\n\r\ncontract DegreeVerification\r\n{\r\n    uint public NextDegreeId;\r\n    \r\n    struct DegreeData\r\n    {\r\n        uint SerialNumber;\r\n        string NationalIdentityCard;\r\n        string StudentName;\r\n        string StudentId;\r\n        string DegreeTitle;\r\n        string UniversityName;\r\n        string DegreeJSON;\r\n        bytes32 DegreeHash;\r\n        address InsertedBy;\r\n        // Status \r\n    }\r\n    \r\n    mapping(uint => DegreeData) public DegreeDataList;\r\n    \r\n    // Function Used to Insert data to blockchain\r\n    function CreateDegree(string memory _nationIdCard, string memory _studentName, string memory _studentId, string memory _degreeTitle, string memory _universityName, string memory _degreeJSON) public returns (uint)\r\n    {\r\n        bytes32 _degreeHash = GetEthDegreeHash(_degreeTitle, _universityName, _degreeJSON);\r\n        DegreeDataList[NextDegreeId] = DegreeData(NextDegreeId, _nationIdCard, _studentName, _studentId, _degreeTitle, _universityName, _degreeJSON, _degreeHash, msg.sender);\r\n\r\n        NextDegreeId++;\r\n        return NextDegreeId - 1;\r\n    }\r\n\r\n    // Function to Generate QR-Code\r\n    function GetDegreeInfo(string memory _nationIdCard, string memory _degreeTitle, string memory _university) view public returns (bytes32, uint)\r\n    {\r\n        for(uint i= 0; i < NextStakeholderId; i++)\r\n        {\r\n            if(keccak256(abi.encodePacked((DegreeDataList[i].NationalIdentityCard))) == keccak256(abi.encodePacked((_nationIdCard))) \r\n            && keccak256(abi.encodePacked((DegreeDataList[i].DegreeTitle))) == keccak256(abi.encodePacked((_degreeTitle))) \r\n            && keccak256(abi.encodePacked((DegreeDataList[i].UniversityName))) == keccak256(abi.encodePacked((_university))))\r\n            {\r\n               return(DegreeDataList[i].DegreeHash, DegreeDataList[i].SerialNumber);\r\n            }\r\n        }\r\n    }\r\n\r\n    // Function to Generate QR-Code\r\n    function GetDegreeInfo(uint _degreeId) view public returns(uint, string memory, string memory, string memory, string memory, string memory, bytes32)\r\n    {\r\n        return(\r\n            DegreeDataList[_degreeId].SerialNumber,\r\n            DegreeDataList[_degreeId].NationalIdentityCard,\r\n            DegreeDataList[_degreeId].StudentName,\r\n            DegreeDataList[_degreeId].StudentId,\r\n            DegreeDataList[_degreeId].DegreeTitle, \r\n            DegreeDataList[_degreeId].UniversityName,\r\n            DegreeDataList[_degreeId].DegreeHash\r\n            ); \r\n    }\r\n\r\n    // Function Used to Verify Degree \r\n    function VerifyDegree(uint _degreeId, bytes32 _degreeRequestedHash) view public returns (uint, string memory, string memory, string memory, string memory, address)\r\n    {\r\n        bytes32 _degreeComputedHash = GetEthDegreeHash(DegreeDataList[_degreeId].DegreeTitle, DegreeDataList[_degreeId].UniversityName, DegreeDataList[_degreeId].DegreeJSON);\r\n\r\n        if(_degreeComputedHash == _degreeRequestedHash)\r\n        {\r\n            return (DegreeDataList[_degreeId].SerialNumber, DegreeDataList[_degreeId].NationalIdentityCard, DegreeDataList[_degreeId].StudentName, DegreeDataList[_degreeId].StudentId, DegreeDataList[_degreeId].DegreeTitle, DegreeDataList[_degreeId].InsertedBy);\r\n        }\r\n    }\r\n\r\n    /*\r\n    // User Registration and Login\r\n    */\r\n    uint public NextStakeholderId;\r\n    string public SignUpStateMessage;\r\n    \r\n    struct Stakeholder\r\n    {\r\n        uint UniqueId;\r\n        string Username;\r\n        string UserPass;\r\n        string FullName;\r\n        address UserAddress;\r\n        bytes32 StakeholderHash;\r\n        string AccountType;\r\n    }\r\n    \r\n    mapping(uint => Stakeholder) public StakeholderList;\r\n\r\n    function SignupStakeholder(string memory _usermame, string memory _password, string memory _fullName, string memory _accountType) public returns (uint)\r\n    {\r\n        address sender = msg.sender;\r\n        address adminAddress = 0x99BC5c25Cd1750E386B9440C77b6e76b2b77C91A;\r\n\r\n        if(sender == adminAddress)\r\n        {\r\n            bytes32 _stakeHolderHash = GetEthDegreeHash(_usermame, _password, _password);\r\n\r\n            StakeholderList[NextStakeholderId] = Stakeholder(NextStakeholderId, _usermame, _password, _fullName, sender, _stakeHolderHash, _accountType);\r\n            NextStakeholderId++;\r\n            SignUpStateMessage = \"Successfully Signup, Permission Granted\";\r\n            return NextStakeholderId - 1;\r\n        }\r\n        SignUpStateMessage = \"Not Allowed to Signup, Permission Denied\";\r\n        return 0;\r\n    }\r\n    \r\n    // Function Used to Sign In dApp\r\n    function SignInStakeholder(string memory _usermame, string memory _password) view public returns(string memory)\r\n    {\r\n        for(uint i= 0; i < NextStakeholderId; i++)\r\n        {\r\n            if(keccak256(abi.encodePacked((StakeholderList[i].Username))) == keccak256(abi.encodePacked((_usermame))) &&  keccak256(abi.encodePacked((StakeholderList[i].UserPass))) == keccak256(abi.encodePacked((_password))))\r\n            {\r\n                bytes32 _stakeHolderHash = GetEthDegreeHash(_usermame, _password, _password);\r\n\r\n                if(StakeholderList[i].StakeholderHash == _stakeHolderHash)\r\n                {\r\n                   return _usermame;\r\n                }\r\n            }\r\n        }\r\n        return \"\";\r\n    }\r\n\r\n    /*    \r\n    // Create and Verifying Hash\r\n    */    \r\n    \r\n    function GetEthDegreeHash(string memory _degreeName, string memory _universityName, string memory _degreeJSON) public pure returns (bytes32)\r\n    {\r\n        bytes32 messageHash = GetMessageHash(_degreeName, _universityName, _degreeJSON);\r\n        bytes32 ethSignMessageHash = GetEthMessageSignedHash(messageHash);\r\n        \r\n        return ethSignMessageHash;\r\n    }\r\n    \r\n    function GetMessageHash(string memory _degreeName, string memory _universityName, string memory _degreeJSON) public pure returns (bytes32)\r\n    {\r\n        // have to add uniqueId in parameter to distinguish hash\r\n        return keccak256(abi.encodePacked(_degreeName, _universityName, _degreeJSON));\r\n    }\r\n    \r\n    function GetEthMessageSignedHash(bytes32 _messageHash) public pure returns (bytes32)\r\n    {\r\n        // prefix Ethereum signing message (32 bit) \r\n        // followed by length of message it required for ecrecover function\r\n        return keccak256(abi.encodePacked(\"\\x19Ethereum Signed Message:\\n32\", _messageHash));\r\n    }\r\n}",
  "sourcePath": "D:/Personal/Masters Related/Block chain/Project/eth-DegreeVerification/contracts/DegreeVerification.sol",
  "compiler": {
    "name": "solc",
    "version": "0.5.0+commit.1d4f565a.Emscripten.clang"
  },
  "schemaVersion": "3.0.1",
  "updatedAt": "2021-01-27T09:34:20.608Z",
  "devdoc": {
    "methods": {}
  },
  "userdoc": {
    "methods": {}
  }
}